{
	"contracts/Twitter.sol": {
		"Twitter": {
			"abi": [
				{
					"inputs": [
						{
							"internalType": "string",
							"name": "_tweet",
							"type": "string"
						}
					],
					"name": "addTweet",
					"outputs": [],
					"stateMutability": "nonpayable",
					"type": "function"
				},
				{
					"inputs": [
						{
							"internalType": "address",
							"name": "_owner",
							"type": "address"
						}
					],
					"name": "getAllTweets",
					"outputs": [
						{
							"internalType": "string[]",
							"name": "",
							"type": "string[]"
						}
					],
					"stateMutability": "view",
					"type": "function"
				},
				{
					"inputs": [
						{
							"internalType": "address",
							"name": "_owner",
							"type": "address"
						},
						{
							"internalType": "uint256",
							"name": "_id",
							"type": "uint256"
						}
					],
					"name": "getSingleTweetById",
					"outputs": [
						{
							"internalType": "string",
							"name": "",
							"type": "string"
						}
					],
					"stateMutability": "view",
					"type": "function"
				},
				{
					"inputs": [
						{
							"internalType": "address",
							"name": "",
							"type": "address"
						},
						{
							"internalType": "uint256",
							"name": "",
							"type": "uint256"
						}
					],
					"name": "tweets",
					"outputs": [
						{
							"internalType": "string",
							"name": "",
							"type": "string"
						}
					],
					"stateMutability": "view",
					"type": "function"
				}
			],
			"devdoc": {
				"kind": "dev",
				"methods": {},
				"version": 1
			},
			"evm": {
				"assembly": "    /* \"contracts/Twitter.sol\":289:713  contract Twitter{... */\n  mstore(0x40, 0x80)\n  callvalue\n  dup1\n  iszero\n  tag_1\n  jumpi\n  0x00\n  dup1\n  revert\ntag_1:\n  pop\n  dataSize(sub_0)\n  dup1\n  dataOffset(sub_0)\n  0x00\n  codecopy\n  0x00\n  return\nstop\n\nsub_0: assembly {\n        /* \"contracts/Twitter.sol\":289:713  contract Twitter{... */\n      mstore(0x40, 0x80)\n      callvalue\n      dup1\n      iszero\n      tag_1\n      jumpi\n      0x00\n      dup1\n      revert\n    tag_1:\n      pop\n      jumpi(tag_2, lt(calldatasize, 0x04))\n      shr(0xe0, calldataload(0x00))\n      dup1\n      0x05a1b4a9\n      eq\n      tag_3\n      jumpi\n      dup1\n      0x12e7ee1c\n      eq\n      tag_4\n      jumpi\n      dup1\n      0x59ee12bc\n      eq\n      tag_5\n      jumpi\n      dup1\n      0xbade444a\n      eq\n      tag_6\n      jumpi\n    tag_2:\n      0x00\n      dup1\n      revert\n        /* \"contracts/Twitter.sol\":312:355  mapping(address =>  string[]) public tweets */\n    tag_3:\n      tag_7\n      0x04\n      dup1\n      calldatasize\n      sub\n      dup2\n      add\n      swap1\n      tag_8\n      swap2\n      swap1\n      tag_9\n      jump\t// in\n    tag_8:\n      tag_10\n      jump\t// in\n    tag_7:\n      mload(0x40)\n      tag_11\n      swap2\n      swap1\n      tag_12\n      jump\t// in\n    tag_11:\n      mload(0x40)\n      dup1\n      swap2\n      sub\n      swap1\n      return\n        /* \"contracts/Twitter.sol\":462:574  function getAllTweets(address _owner) public view returns(string[] memory){... */\n    tag_4:\n      tag_13\n      0x04\n      dup1\n      calldatasize\n      sub\n      dup2\n      add\n      swap1\n      tag_14\n      swap2\n      swap1\n      tag_15\n      jump\t// in\n    tag_14:\n      tag_16\n      jump\t// in\n    tag_13:\n      mload(0x40)\n      tag_17\n      swap2\n      swap1\n      tag_18\n      jump\t// in\n    tag_17:\n      mload(0x40)\n      dup1\n      swap2\n      sub\n      swap1\n      return\n        /* \"contracts/Twitter.sol\":362:456  function addTweet(string memory _tweet) public{... */\n    tag_5:\n      tag_19\n      0x04\n      dup1\n      calldatasize\n      sub\n      dup2\n      add\n      swap1\n      tag_20\n      swap2\n      swap1\n      tag_21\n      jump\t// in\n    tag_20:\n      tag_22\n      jump\t// in\n    tag_19:\n      stop\n        /* \"contracts/Twitter.sol\":580:711  function getSingleTweetById(address _owner, uint _id) public view returns(string memory){... */\n    tag_6:\n      tag_23\n      0x04\n      dup1\n      calldatasize\n      sub\n      dup2\n      add\n      swap1\n      tag_24\n      swap2\n      swap1\n      tag_9\n      jump\t// in\n    tag_24:\n      tag_25\n      jump\t// in\n    tag_23:\n      mload(0x40)\n      tag_26\n      swap2\n      swap1\n      tag_12\n      jump\t// in\n    tag_26:\n      mload(0x40)\n      dup1\n      swap2\n      sub\n      swap1\n      return\n        /* \"contracts/Twitter.sol\":312:355  mapping(address =>  string[]) public tweets */\n    tag_10:\n      mstore(0x20, 0x00)\n      dup2\n      0x00\n      mstore\n      keccak256(0x00, 0x40)\n      dup2\n      dup2\n      sload\n      dup2\n      lt\n      tag_27\n      jumpi\n      0x00\n      dup1\n      revert\n    tag_27:\n      swap1\n      0x00\n      mstore\n      keccak256(0x00, 0x20)\n      add\n      0x00\n      swap2\n      pop\n      swap2\n      pop\n      pop\n      dup1\n      sload\n      tag_29\n      swap1\n      tag_30\n      jump\t// in\n    tag_29:\n      dup1\n      0x1f\n      add\n      0x20\n      dup1\n      swap2\n      div\n      mul\n      0x20\n      add\n      mload(0x40)\n      swap1\n      dup2\n      add\n      0x40\n      mstore\n      dup1\n      swap3\n      swap2\n      swap1\n      dup2\n      dup2\n      mstore\n      0x20\n      add\n      dup3\n      dup1\n      sload\n      tag_31\n      swap1\n      tag_30\n      jump\t// in\n    tag_31:\n      dup1\n      iszero\n      tag_32\n      jumpi\n      dup1\n      0x1f\n      lt\n      tag_33\n      jumpi\n      0x0100\n      dup1\n      dup4\n      sload\n      div\n      mul\n      dup4\n      mstore\n      swap2\n      0x20\n      add\n      swap2\n      jump(tag_32)\n    tag_33:\n      dup3\n      add\n      swap2\n      swap1\n      0x00\n      mstore\n      keccak256(0x00, 0x20)\n      swap1\n    tag_34:\n      dup2\n      sload\n      dup2\n      mstore\n      swap1\n      0x01\n      add\n      swap1\n      0x20\n      add\n      dup1\n      dup4\n      gt\n      tag_34\n      jumpi\n      dup3\n      swap1\n      sub\n      0x1f\n      and\n      dup3\n      add\n      swap2\n    tag_32:\n      pop\n      pop\n      pop\n      pop\n      pop\n      dup2\n      jump\t// out\n        /* \"contracts/Twitter.sol\":462:574  function getAllTweets(address _owner) public view returns(string[] memory){... */\n    tag_16:\n        /* \"contracts/Twitter.sol\":520:535  string[] memory */\n      0x60\n        /* \"contracts/Twitter.sol\":553:559  tweets */\n      0x00\n        /* \"contracts/Twitter.sol\":553:567  tweets[_owner] */\n      dup1\n        /* \"contracts/Twitter.sol\":560:566  _owner */\n      dup4\n        /* \"contracts/Twitter.sol\":553:567  tweets[_owner] */\n      0xffffffffffffffffffffffffffffffffffffffff\n      and\n      0xffffffffffffffffffffffffffffffffffffffff\n      and\n      dup2\n      mstore\n      0x20\n      add\n      swap1\n      dup2\n      mstore\n      0x20\n      add\n      0x00\n      keccak256\n        /* \"contracts/Twitter.sol\":546:567  return tweets[_owner] */\n      dup1\n      sload\n      dup1\n      0x20\n      mul\n      0x20\n      add\n      mload(0x40)\n      swap1\n      dup2\n      add\n      0x40\n      mstore\n      dup1\n      swap3\n      swap2\n      swap1\n      dup2\n      dup2\n      mstore\n      0x20\n      add\n      0x00\n      swap1\n    tag_36:\n      dup3\n      dup3\n      lt\n      iszero\n      tag_37\n      jumpi\n      dup4\n      dup3\n      swap1\n      0x00\n      mstore\n      keccak256(0x00, 0x20)\n      add\n      dup1\n      sload\n      tag_39\n      swap1\n      tag_30\n      jump\t// in\n    tag_39:\n      dup1\n      0x1f\n      add\n      0x20\n      dup1\n      swap2\n      div\n      mul\n      0x20\n      add\n      mload(0x40)\n      swap1\n      dup2\n      add\n      0x40\n      mstore\n      dup1\n      swap3\n      swap2\n      swap1\n      dup2\n      dup2\n      mstore\n      0x20\n      add\n      dup3\n      dup1\n      sload\n      tag_40\n      swap1\n      tag_30\n      jump\t// in\n    tag_40:\n      dup1\n      iszero\n      tag_41\n      jumpi\n      dup1\n      0x1f\n      lt\n      tag_42\n      jumpi\n      0x0100\n      dup1\n      dup4\n      sload\n      div\n      mul\n      dup4\n      mstore\n      swap2\n      0x20\n      add\n      swap2\n      jump(tag_41)\n    tag_42:\n      dup3\n      add\n      swap2\n      swap1\n      0x00\n      mstore\n      keccak256(0x00, 0x20)\n      swap1\n    tag_43:\n      dup2\n      sload\n      dup2\n      mstore\n      swap1\n      0x01\n      add\n      swap1\n      0x20\n      add\n      dup1\n      dup4\n      gt\n      tag_43\n      jumpi\n      dup3\n      swap1\n      sub\n      0x1f\n      and\n      dup3\n      add\n      swap2\n    tag_41:\n      pop\n      pop\n      pop\n      pop\n      pop\n      dup2\n      mstore\n      0x20\n      add\n      swap1\n      0x01\n      add\n      swap1\n      jump(tag_36)\n    tag_37:\n      pop\n      pop\n      pop\n      pop\n      swap1\n      pop\n        /* \"contracts/Twitter.sol\":462:574  function getAllTweets(address _owner) public view returns(string[] memory){... */\n      swap2\n      swap1\n      pop\n      jump\t// out\n        /* \"contracts/Twitter.sol\":362:456  function addTweet(string memory _tweet) public{... */\n    tag_22:\n        /* \"contracts/Twitter.sol\":418:424  tweets */\n      0x00\n        /* \"contracts/Twitter.sol\":418:436  tweets[msg.sender] */\n      dup1\n        /* \"contracts/Twitter.sol\":425:435  msg.sender */\n      caller\n        /* \"contracts/Twitter.sol\":418:436  tweets[msg.sender] */\n      0xffffffffffffffffffffffffffffffffffffffff\n      and\n      0xffffffffffffffffffffffffffffffffffffffff\n      and\n      dup2\n      mstore\n      0x20\n      add\n      swap1\n      dup2\n      mstore\n      0x20\n      add\n      0x00\n      keccak256\n        /* \"contracts/Twitter.sol\":442:448  _tweet */\n      dup2\n        /* \"contracts/Twitter.sol\":418:449  tweets[msg.sender].push(_tweet) */\n      swap1\n      dup1\n      0x01\n      dup2\n      sload\n      add\n      dup1\n      dup3\n      sstore\n      dup1\n      swap2\n      pop\n      pop\n      0x01\n      swap1\n      sub\n      swap1\n      0x00\n      mstore\n      keccak256(0x00, 0x20)\n      add\n      0x00\n      swap1\n      swap2\n      swap1\n      swap2\n      swap1\n      swap2\n      pop\n      swap1\n      dup2\n      tag_46\n      swap2\n      swap1\n      tag_47\n      jump\t// in\n    tag_46:\n      pop\n        /* \"contracts/Twitter.sol\":362:456  function addTweet(string memory _tweet) public{... */\n      pop\n      jump\t// out\n        /* \"contracts/Twitter.sol\":580:711  function getSingleTweetById(address _owner, uint _id) public view returns(string memory){... */\n    tag_25:\n        /* \"contracts/Twitter.sol\":654:667  string memory */\n      0x60\n        /* \"contracts/Twitter.sol\":685:691  tweets */\n      0x00\n        /* \"contracts/Twitter.sol\":685:699  tweets[_owner] */\n      dup1\n        /* \"contracts/Twitter.sol\":692:698  _owner */\n      dup5\n        /* \"contracts/Twitter.sol\":685:699  tweets[_owner] */\n      0xffffffffffffffffffffffffffffffffffffffff\n      and\n      0xffffffffffffffffffffffffffffffffffffffff\n      and\n      dup2\n      mstore\n      0x20\n      add\n      swap1\n      dup2\n      mstore\n      0x20\n      add\n      0x00\n      keccak256\n        /* \"contracts/Twitter.sol\":700:703  _id */\n      dup3\n        /* \"contracts/Twitter.sol\":685:704  tweets[_owner][_id] */\n      dup2\n      sload\n      dup2\n      lt\n      tag_49\n      jumpi\n      tag_50\n      tag_51\n      jump\t// in\n    tag_50:\n    tag_49:\n      swap1\n      0x00\n      mstore\n      keccak256(0x00, 0x20)\n      add\n        /* \"contracts/Twitter.sol\":678:704  return tweets[_owner][_id] */\n      dup1\n      sload\n      tag_53\n      swap1\n      tag_30\n      jump\t// in\n    tag_53:\n      dup1\n      0x1f\n      add\n      0x20\n      dup1\n      swap2\n      div\n      mul\n      0x20\n      add\n      mload(0x40)\n      swap1\n      dup2\n      add\n      0x40\n      mstore\n      dup1\n      swap3\n      swap2\n      swap1\n      dup2\n      dup2\n      mstore\n      0x20\n      add\n      dup3\n      dup1\n      sload\n      tag_54\n      swap1\n      tag_30\n      jump\t// in\n    tag_54:\n      dup1\n      iszero\n      tag_55\n      jumpi\n      dup1\n      0x1f\n      lt\n      tag_56\n      jumpi\n      0x0100\n      dup1\n      dup4\n      sload\n      div\n      mul\n      dup4\n      mstore\n      swap2\n      0x20\n      add\n      swap2\n      jump(tag_55)\n    tag_56:\n      dup3\n      add\n      swap2\n      swap1\n      0x00\n      mstore\n      keccak256(0x00, 0x20)\n      swap1\n    tag_57:\n      dup2\n      sload\n      dup2\n      mstore\n      swap1\n      0x01\n      add\n      swap1\n      0x20\n      add\n      dup1\n      dup4\n      gt\n      tag_57\n      jumpi\n      dup3\n      swap1\n      sub\n      0x1f\n      and\n      dup3\n      add\n      swap2\n    tag_55:\n      pop\n      pop\n      pop\n      pop\n      pop\n      swap1\n      pop\n        /* \"contracts/Twitter.sol\":580:711  function getSingleTweetById(address _owner, uint _id) public view returns(string memory){... */\n      swap3\n      swap2\n      pop\n      pop\n      jump\t// out\n        /* \"#utility.yul\":7:82   */\n    tag_58:\n        /* \"#utility.yul\":40:46   */\n      0x00\n        /* \"#utility.yul\":73:75   */\n      0x40\n        /* \"#utility.yul\":67:76   */\n      mload\n        /* \"#utility.yul\":57:76   */\n      swap1\n      pop\n        /* \"#utility.yul\":7:82   */\n      swap1\n      jump\t// out\n        /* \"#utility.yul\":88:205   */\n    tag_59:\n        /* \"#utility.yul\":197:198   */\n      0x00\n        /* \"#utility.yul\":194:195   */\n      dup1\n        /* \"#utility.yul\":187:199   */\n      revert\n        /* \"#utility.yul\":211:328   */\n    tag_60:\n        /* \"#utility.yul\":320:321   */\n      0x00\n        /* \"#utility.yul\":317:318   */\n      dup1\n        /* \"#utility.yul\":310:322   */\n      revert\n        /* \"#utility.yul\":334:460   */\n    tag_61:\n        /* \"#utility.yul\":371:378   */\n      0x00\n        /* \"#utility.yul\":411:453   */\n      0xffffffffffffffffffffffffffffffffffffffff\n        /* \"#utility.yul\":404:409   */\n      dup3\n        /* \"#utility.yul\":400:454   */\n      and\n        /* \"#utility.yul\":389:454   */\n      swap1\n      pop\n        /* \"#utility.yul\":334:460   */\n      swap2\n      swap1\n      pop\n      jump\t// out\n        /* \"#utility.yul\":466:562   */\n    tag_62:\n        /* \"#utility.yul\":503:510   */\n      0x00\n        /* \"#utility.yul\":532:556   */\n      tag_112\n        /* \"#utility.yul\":550:555   */\n      dup3\n        /* \"#utility.yul\":532:556   */\n      tag_61\n      jump\t// in\n    tag_112:\n        /* \"#utility.yul\":521:556   */\n      swap1\n      pop\n        /* \"#utility.yul\":466:562   */\n      swap2\n      swap1\n      pop\n      jump\t// out\n        /* \"#utility.yul\":568:690   */\n    tag_63:\n        /* \"#utility.yul\":641:665   */\n      tag_114\n        /* \"#utility.yul\":659:664   */\n      dup2\n        /* \"#utility.yul\":641:665   */\n      tag_62\n      jump\t// in\n    tag_114:\n        /* \"#utility.yul\":634:639   */\n      dup2\n        /* \"#utility.yul\":631:666   */\n      eq\n        /* \"#utility.yul\":621:684   */\n      tag_115\n      jumpi\n        /* \"#utility.yul\":680:681   */\n      0x00\n        /* \"#utility.yul\":677:678   */\n      dup1\n        /* \"#utility.yul\":670:682   */\n      revert\n        /* \"#utility.yul\":621:684   */\n    tag_115:\n        /* \"#utility.yul\":568:690   */\n      pop\n      jump\t// out\n        /* \"#utility.yul\":696:835   */\n    tag_64:\n        /* \"#utility.yul\":742:747   */\n      0x00\n        /* \"#utility.yul\":780:786   */\n      dup2\n        /* \"#utility.yul\":767:787   */\n      calldataload\n        /* \"#utility.yul\":758:787   */\n      swap1\n      pop\n        /* \"#utility.yul\":796:829   */\n      tag_117\n        /* \"#utility.yul\":823:828   */\n      dup2\n        /* \"#utility.yul\":796:829   */\n      tag_63\n      jump\t// in\n    tag_117:\n        /* \"#utility.yul\":696:835   */\n      swap3\n      swap2\n      pop\n      pop\n      jump\t// out\n        /* \"#utility.yul\":841:918   */\n    tag_65:\n        /* \"#utility.yul\":878:885   */\n      0x00\n        /* \"#utility.yul\":907:912   */\n      dup2\n        /* \"#utility.yul\":896:912   */\n      swap1\n      pop\n        /* \"#utility.yul\":841:918   */\n      swap2\n      swap1\n      pop\n      jump\t// out\n        /* \"#utility.yul\":924:1046   */\n    tag_66:\n        /* \"#utility.yul\":997:1021   */\n      tag_120\n        /* \"#utility.yul\":1015:1020   */\n      dup2\n        /* \"#utility.yul\":997:1021   */\n      tag_65\n      jump\t// in\n    tag_120:\n        /* \"#utility.yul\":990:995   */\n      dup2\n        /* \"#utility.yul\":987:1022   */\n      eq\n        /* \"#utility.yul\":977:1040   */\n      tag_121\n      jumpi\n        /* \"#utility.yul\":1036:1037   */\n      0x00\n        /* \"#utility.yul\":1033:1034   */\n      dup1\n        /* \"#utility.yul\":1026:1038   */\n      revert\n        /* \"#utility.yul\":977:1040   */\n    tag_121:\n        /* \"#utility.yul\":924:1046   */\n      pop\n      jump\t// out\n        /* \"#utility.yul\":1052:1191   */\n    tag_67:\n        /* \"#utility.yul\":1098:1103   */\n      0x00\n        /* \"#utility.yul\":1136:1142   */\n      dup2\n        /* \"#utility.yul\":1123:1143   */\n      calldataload\n        /* \"#utility.yul\":1114:1143   */\n      swap1\n      pop\n        /* \"#utility.yul\":1152:1185   */\n      tag_123\n        /* \"#utility.yul\":1179:1184   */\n      dup2\n        /* \"#utility.yul\":1152:1185   */\n      tag_66\n      jump\t// in\n    tag_123:\n        /* \"#utility.yul\":1052:1191   */\n      swap3\n      swap2\n      pop\n      pop\n      jump\t// out\n        /* \"#utility.yul\":1197:1671   */\n    tag_9:\n        /* \"#utility.yul\":1265:1271   */\n      0x00\n        /* \"#utility.yul\":1273:1279   */\n      dup1\n        /* \"#utility.yul\":1322:1324   */\n      0x40\n        /* \"#utility.yul\":1310:1319   */\n      dup4\n        /* \"#utility.yul\":1301:1308   */\n      dup6\n        /* \"#utility.yul\":1297:1320   */\n      sub\n        /* \"#utility.yul\":1293:1325   */\n      slt\n        /* \"#utility.yul\":1290:1409   */\n      iszero\n      tag_125\n      jumpi\n        /* \"#utility.yul\":1328:1407   */\n      tag_126\n      tag_59\n      jump\t// in\n    tag_126:\n        /* \"#utility.yul\":1290:1409   */\n    tag_125:\n        /* \"#utility.yul\":1448:1449   */\n      0x00\n        /* \"#utility.yul\":1473:1526   */\n      tag_127\n        /* \"#utility.yul\":1518:1525   */\n      dup6\n        /* \"#utility.yul\":1509:1515   */\n      dup3\n        /* \"#utility.yul\":1498:1507   */\n      dup7\n        /* \"#utility.yul\":1494:1516   */\n      add\n        /* \"#utility.yul\":1473:1526   */\n      tag_64\n      jump\t// in\n    tag_127:\n        /* \"#utility.yul\":1463:1526   */\n      swap3\n      pop\n        /* \"#utility.yul\":1419:1536   */\n      pop\n        /* \"#utility.yul\":1575:1577   */\n      0x20\n        /* \"#utility.yul\":1601:1654   */\n      tag_128\n        /* \"#utility.yul\":1646:1653   */\n      dup6\n        /* \"#utility.yul\":1637:1643   */\n      dup3\n        /* \"#utility.yul\":1626:1635   */\n      dup7\n        /* \"#utility.yul\":1622:1644   */\n      add\n        /* \"#utility.yul\":1601:1654   */\n      tag_67\n      jump\t// in\n    tag_128:\n        /* \"#utility.yul\":1591:1654   */\n      swap2\n      pop\n        /* \"#utility.yul\":1546:1664   */\n      pop\n        /* \"#utility.yul\":1197:1671   */\n      swap3\n      pop\n      swap3\n      swap1\n      pop\n      jump\t// out\n        /* \"#utility.yul\":1677:1776   */\n    tag_68:\n        /* \"#utility.yul\":1729:1735   */\n      0x00\n        /* \"#utility.yul\":1763:1768   */\n      dup2\n        /* \"#utility.yul\":1757:1769   */\n      mload\n        /* \"#utility.yul\":1747:1769   */\n      swap1\n      pop\n        /* \"#utility.yul\":1677:1776   */\n      swap2\n      swap1\n      pop\n      jump\t// out\n        /* \"#utility.yul\":1782:1951   */\n    tag_69:\n        /* \"#utility.yul\":1866:1877   */\n      0x00\n        /* \"#utility.yul\":1900:1906   */\n      dup3\n        /* \"#utility.yul\":1895:1898   */\n      dup3\n        /* \"#utility.yul\":1888:1907   */\n      mstore\n        /* \"#utility.yul\":1940:1944   */\n      0x20\n        /* \"#utility.yul\":1935:1938   */\n      dup3\n        /* \"#utility.yul\":1931:1945   */\n      add\n        /* \"#utility.yul\":1916:1945   */\n      swap1\n      pop\n        /* \"#utility.yul\":1782:1951   */\n      swap3\n      swap2\n      pop\n      pop\n      jump\t// out\n        /* \"#utility.yul\":1957:2096   */\n    tag_70:\n        /* \"#utility.yul\":2046:2052   */\n      dup3\n        /* \"#utility.yul\":2041:2044   */\n      dup2\n        /* \"#utility.yul\":2036:2039   */\n      dup4\n        /* \"#utility.yul\":2030:2053   */\n      mcopy\n        /* \"#utility.yul\":2087:2088   */\n      0x00\n        /* \"#utility.yul\":2078:2084   */\n      dup4\n        /* \"#utility.yul\":2073:2076   */\n      dup4\n        /* \"#utility.yul\":2069:2085   */\n      add\n        /* \"#utility.yul\":2062:2089   */\n      mstore\n        /* \"#utility.yul\":1957:2096   */\n      pop\n      pop\n      pop\n      jump\t// out\n        /* \"#utility.yul\":2102:2204   */\n    tag_71:\n        /* \"#utility.yul\":2143:2149   */\n      0x00\n        /* \"#utility.yul\":2194:2196   */\n      0x1f\n        /* \"#utility.yul\":2190:2197   */\n      not\n        /* \"#utility.yul\":2185:2187   */\n      0x1f\n        /* \"#utility.yul\":2178:2183   */\n      dup4\n        /* \"#utility.yul\":2174:2188   */\n      add\n        /* \"#utility.yul\":2170:2198   */\n      and\n        /* \"#utility.yul\":2160:2198   */\n      swap1\n      pop\n        /* \"#utility.yul\":2102:2204   */\n      swap2\n      swap1\n      pop\n      jump\t// out\n        /* \"#utility.yul\":2210:2587   */\n    tag_72:\n        /* \"#utility.yul\":2298:2301   */\n      0x00\n        /* \"#utility.yul\":2326:2365   */\n      tag_134\n        /* \"#utility.yul\":2359:2364   */\n      dup3\n        /* \"#utility.yul\":2326:2365   */\n      tag_68\n      jump\t// in\n    tag_134:\n        /* \"#utility.yul\":2381:2452   */\n      tag_135\n        /* \"#utility.yul\":2445:2451   */\n      dup2\n        /* \"#utility.yul\":2440:2443   */\n      dup6\n        /* \"#utility.yul\":2381:2452   */\n      tag_69\n      jump\t// in\n    tag_135:\n        /* \"#utility.yul\":2374:2452   */\n      swap4\n      pop\n        /* \"#utility.yul\":2461:2526   */\n      tag_136\n        /* \"#utility.yul\":2519:2525   */\n      dup2\n        /* \"#utility.yul\":2514:2517   */\n      dup6\n        /* \"#utility.yul\":2507:2511   */\n      0x20\n        /* \"#utility.yul\":2500:2505   */\n      dup7\n        /* \"#utility.yul\":2496:2512   */\n      add\n        /* \"#utility.yul\":2461:2526   */\n      tag_70\n      jump\t// in\n    tag_136:\n        /* \"#utility.yul\":2551:2580   */\n      tag_137\n        /* \"#utility.yul\":2573:2579   */\n      dup2\n        /* \"#utility.yul\":2551:2580   */\n      tag_71\n      jump\t// in\n    tag_137:\n        /* \"#utility.yul\":2546:2549   */\n      dup5\n        /* \"#utility.yul\":2542:2581   */\n      add\n        /* \"#utility.yul\":2535:2581   */\n      swap2\n      pop\n        /* \"#utility.yul\":2302:2587   */\n      pop\n        /* \"#utility.yul\":2210:2587   */\n      swap3\n      swap2\n      pop\n      pop\n      jump\t// out\n        /* \"#utility.yul\":2593:2906   */\n    tag_12:\n        /* \"#utility.yul\":2706:2710   */\n      0x00\n        /* \"#utility.yul\":2744:2746   */\n      0x20\n        /* \"#utility.yul\":2733:2742   */\n      dup3\n        /* \"#utility.yul\":2729:2747   */\n      add\n        /* \"#utility.yul\":2721:2747   */\n      swap1\n      pop\n        /* \"#utility.yul\":2793:2802   */\n      dup2\n        /* \"#utility.yul\":2787:2791   */\n      dup2\n        /* \"#utility.yul\":2783:2803   */\n      sub\n        /* \"#utility.yul\":2779:2780   */\n      0x00\n        /* \"#utility.yul\":2768:2777   */\n      dup4\n        /* \"#utility.yul\":2764:2781   */\n      add\n        /* \"#utility.yul\":2757:2804   */\n      mstore\n        /* \"#utility.yul\":2821:2899   */\n      tag_139\n        /* \"#utility.yul\":2894:2898   */\n      dup2\n        /* \"#utility.yul\":2885:2891   */\n      dup5\n        /* \"#utility.yul\":2821:2899   */\n      tag_72\n      jump\t// in\n    tag_139:\n        /* \"#utility.yul\":2813:2899   */\n      swap1\n      pop\n        /* \"#utility.yul\":2593:2906   */\n      swap3\n      swap2\n      pop\n      pop\n      jump\t// out\n        /* \"#utility.yul\":2912:3241   */\n    tag_15:\n        /* \"#utility.yul\":2971:2977   */\n      0x00\n        /* \"#utility.yul\":3020:3022   */\n      0x20\n        /* \"#utility.yul\":3008:3017   */\n      dup3\n        /* \"#utility.yul\":2999:3006   */\n      dup5\n        /* \"#utility.yul\":2995:3018   */\n      sub\n        /* \"#utility.yul\":2991:3023   */\n      slt\n        /* \"#utility.yul\":2988:3107   */\n      iszero\n      tag_141\n      jumpi\n        /* \"#utility.yul\":3026:3105   */\n      tag_142\n      tag_59\n      jump\t// in\n    tag_142:\n        /* \"#utility.yul\":2988:3107   */\n    tag_141:\n        /* \"#utility.yul\":3146:3147   */\n      0x00\n        /* \"#utility.yul\":3171:3224   */\n      tag_143\n        /* \"#utility.yul\":3216:3223   */\n      dup5\n        /* \"#utility.yul\":3207:3213   */\n      dup3\n        /* \"#utility.yul\":3196:3205   */\n      dup6\n        /* \"#utility.yul\":3192:3214   */\n      add\n        /* \"#utility.yul\":3171:3224   */\n      tag_64\n      jump\t// in\n    tag_143:\n        /* \"#utility.yul\":3161:3224   */\n      swap2\n      pop\n        /* \"#utility.yul\":3117:3234   */\n      pop\n        /* \"#utility.yul\":2912:3241   */\n      swap3\n      swap2\n      pop\n      pop\n      jump\t// out\n        /* \"#utility.yul\":3247:3371   */\n    tag_73:\n        /* \"#utility.yul\":3324:3330   */\n      0x00\n        /* \"#utility.yul\":3358:3363   */\n      dup2\n        /* \"#utility.yul\":3352:3364   */\n      mload\n        /* \"#utility.yul\":3342:3364   */\n      swap1\n      pop\n        /* \"#utility.yul\":3247:3371   */\n      swap2\n      swap1\n      pop\n      jump\t// out\n        /* \"#utility.yul\":3377:3571   */\n    tag_74:\n        /* \"#utility.yul\":3486:3497   */\n      0x00\n        /* \"#utility.yul\":3520:3526   */\n      dup3\n        /* \"#utility.yul\":3515:3518   */\n      dup3\n        /* \"#utility.yul\":3508:3527   */\n      mstore\n        /* \"#utility.yul\":3560:3564   */\n      0x20\n        /* \"#utility.yul\":3555:3558   */\n      dup3\n        /* \"#utility.yul\":3551:3565   */\n      add\n        /* \"#utility.yul\":3536:3565   */\n      swap1\n      pop\n        /* \"#utility.yul\":3377:3571   */\n      swap3\n      swap2\n      pop\n      pop\n      jump\t// out\n        /* \"#utility.yul\":3577:3719   */\n    tag_75:\n        /* \"#utility.yul\":3654:3658   */\n      0x00\n        /* \"#utility.yul\":3677:3680   */\n      dup2\n        /* \"#utility.yul\":3669:3680   */\n      swap1\n      pop\n        /* \"#utility.yul\":3707:3711   */\n      0x20\n        /* \"#utility.yul\":3702:3705   */\n      dup3\n        /* \"#utility.yul\":3698:3712   */\n      add\n        /* \"#utility.yul\":3690:3712   */\n      swap1\n      pop\n        /* \"#utility.yul\":3577:3719   */\n      swap2\n      swap1\n      pop\n      jump\t// out\n        /* \"#utility.yul\":3725:3884   */\n    tag_76:\n        /* \"#utility.yul\":3799:3810   */\n      0x00\n        /* \"#utility.yul\":3833:3839   */\n      dup3\n        /* \"#utility.yul\":3828:3831   */\n      dup3\n        /* \"#utility.yul\":3821:3840   */\n      mstore\n        /* \"#utility.yul\":3873:3877   */\n      0x20\n        /* \"#utility.yul\":3868:3871   */\n      dup3\n        /* \"#utility.yul\":3864:3878   */\n      add\n        /* \"#utility.yul\":3849:3878   */\n      swap1\n      pop\n        /* \"#utility.yul\":3725:3884   */\n      swap3\n      swap2\n      pop\n      pop\n      jump\t// out\n        /* \"#utility.yul\":3890:4247   */\n    tag_77:\n        /* \"#utility.yul\":3968:3971   */\n      0x00\n        /* \"#utility.yul\":3996:4035   */\n      tag_149\n        /* \"#utility.yul\":4029:4034   */\n      dup3\n        /* \"#utility.yul\":3996:4035   */\n      tag_68\n      jump\t// in\n    tag_149:\n        /* \"#utility.yul\":4051:4112   */\n      tag_150\n        /* \"#utility.yul\":4105:4111   */\n      dup2\n        /* \"#utility.yul\":4100:4103   */\n      dup6\n        /* \"#utility.yul\":4051:4112   */\n      tag_76\n      jump\t// in\n    tag_150:\n        /* \"#utility.yul\":4044:4112   */\n      swap4\n      pop\n        /* \"#utility.yul\":4121:4186   */\n      tag_151\n        /* \"#utility.yul\":4179:4185   */\n      dup2\n        /* \"#utility.yul\":4174:4177   */\n      dup6\n        /* \"#utility.yul\":4167:4171   */\n      0x20\n        /* \"#utility.yul\":4160:4165   */\n      dup7\n        /* \"#utility.yul\":4156:4172   */\n      add\n        /* \"#utility.yul\":4121:4186   */\n      tag_70\n      jump\t// in\n    tag_151:\n        /* \"#utility.yul\":4211:4240   */\n      tag_152\n        /* \"#utility.yul\":4233:4239   */\n      dup2\n        /* \"#utility.yul\":4211:4240   */\n      tag_71\n      jump\t// in\n    tag_152:\n        /* \"#utility.yul\":4206:4209   */\n      dup5\n        /* \"#utility.yul\":4202:4241   */\n      add\n        /* \"#utility.yul\":4195:4241   */\n      swap2\n      pop\n        /* \"#utility.yul\":3972:4247   */\n      pop\n        /* \"#utility.yul\":3890:4247   */\n      swap3\n      swap2\n      pop\n      pop\n      jump\t// out\n        /* \"#utility.yul\":4253:4449   */\n    tag_78:\n        /* \"#utility.yul\":4342:4352   */\n      0x00\n        /* \"#utility.yul\":4377:4443   */\n      tag_154\n        /* \"#utility.yul\":4439:4442   */\n      dup4\n        /* \"#utility.yul\":4431:4437   */\n      dup4\n        /* \"#utility.yul\":4377:4443   */\n      tag_77\n      jump\t// in\n    tag_154:\n        /* \"#utility.yul\":4363:4443   */\n      swap1\n      pop\n        /* \"#utility.yul\":4253:4449   */\n      swap3\n      swap2\n      pop\n      pop\n      jump\t// out\n        /* \"#utility.yul\":4455:4578   */\n    tag_79:\n        /* \"#utility.yul\":4535:4539   */\n      0x00\n        /* \"#utility.yul\":4567:4571   */\n      0x20\n        /* \"#utility.yul\":4562:4565   */\n      dup3\n        /* \"#utility.yul\":4558:4572   */\n      add\n        /* \"#utility.yul\":4550:4572   */\n      swap1\n      pop\n        /* \"#utility.yul\":4455:4578   */\n      swap2\n      swap1\n      pop\n      jump\t// out\n        /* \"#utility.yul\":4612:5603   */\n    tag_80:\n        /* \"#utility.yul\":4751:4754   */\n      0x00\n        /* \"#utility.yul\":4780:4844   */\n      tag_157\n        /* \"#utility.yul\":4838:4843   */\n      dup3\n        /* \"#utility.yul\":4780:4844   */\n      tag_73\n      jump\t// in\n    tag_157:\n        /* \"#utility.yul\":4860:4956   */\n      tag_158\n        /* \"#utility.yul\":4949:4955   */\n      dup2\n        /* \"#utility.yul\":4944:4947   */\n      dup6\n        /* \"#utility.yul\":4860:4956   */\n      tag_74\n      jump\t// in\n    tag_158:\n        /* \"#utility.yul\":4853:4956   */\n      swap4\n      pop\n        /* \"#utility.yul\":4982:4985   */\n      dup4\n        /* \"#utility.yul\":5027:5031   */\n      0x20\n        /* \"#utility.yul\":5019:5025   */\n      dup3\n        /* \"#utility.yul\":5015:5032   */\n      mul\n        /* \"#utility.yul\":5010:5013   */\n      dup6\n        /* \"#utility.yul\":5006:5033   */\n      add\n        /* \"#utility.yul\":5057:5123   */\n      tag_159\n        /* \"#utility.yul\":5117:5122   */\n      dup6\n        /* \"#utility.yul\":5057:5123   */\n      tag_75\n      jump\t// in\n    tag_159:\n        /* \"#utility.yul\":5146:5153   */\n      dup1\n        /* \"#utility.yul\":5177:5178   */\n      0x00\n        /* \"#utility.yul\":5162:5558   */\n    tag_160:\n        /* \"#utility.yul\":5187:5193   */\n      dup6\n        /* \"#utility.yul\":5184:5185   */\n      dup2\n        /* \"#utility.yul\":5181:5194   */\n      lt\n        /* \"#utility.yul\":5162:5558   */\n      iszero\n      tag_162\n      jumpi\n        /* \"#utility.yul\":5258:5267   */\n      dup5\n        /* \"#utility.yul\":5252:5256   */\n      dup5\n        /* \"#utility.yul\":5248:5268   */\n      sub\n        /* \"#utility.yul\":5243:5246   */\n      dup10\n        /* \"#utility.yul\":5236:5269   */\n      mstore\n        /* \"#utility.yul\":5309:5315   */\n      dup2\n        /* \"#utility.yul\":5303:5316   */\n      mload\n        /* \"#utility.yul\":5337:5421   */\n      tag_163\n        /* \"#utility.yul\":5416:5420   */\n      dup6\n        /* \"#utility.yul\":5401:5414   */\n      dup3\n        /* \"#utility.yul\":5337:5421   */\n      tag_78\n      jump\t// in\n    tag_163:\n        /* \"#utility.yul\":5329:5421   */\n      swap5\n      pop\n        /* \"#utility.yul\":5444:5514   */\n      tag_164\n        /* \"#utility.yul\":5507:5513   */\n      dup4\n        /* \"#utility.yul\":5444:5514   */\n      tag_79\n      jump\t// in\n    tag_164:\n        /* \"#utility.yul\":5434:5514   */\n      swap3\n      pop\n        /* \"#utility.yul\":5543:5547   */\n      0x20\n        /* \"#utility.yul\":5538:5541   */\n      dup11\n        /* \"#utility.yul\":5534:5548   */\n      add\n        /* \"#utility.yul\":5527:5548   */\n      swap10\n      pop\n        /* \"#utility.yul\":5222:5558   */\n      pop\n        /* \"#utility.yul\":5209:5210   */\n      0x01\n        /* \"#utility.yul\":5206:5207   */\n      dup2\n        /* \"#utility.yul\":5202:5211   */\n      add\n        /* \"#utility.yul\":5197:5211   */\n      swap1\n      pop\n        /* \"#utility.yul\":5162:5558   */\n      jump(tag_160)\n    tag_162:\n        /* \"#utility.yul\":5166:5180   */\n      pop\n        /* \"#utility.yul\":5574:5578   */\n      dup3\n        /* \"#utility.yul\":5567:5578   */\n      swap8\n      pop\n        /* \"#utility.yul\":5594:5597   */\n      dup8\n        /* \"#utility.yul\":5587:5597   */\n      swap6\n      pop\n        /* \"#utility.yul\":4756:5603   */\n      pop\n      pop\n      pop\n      pop\n      pop\n        /* \"#utility.yul\":4612:5603   */\n      swap3\n      swap2\n      pop\n      pop\n      jump\t// out\n        /* \"#utility.yul\":5609:6022   */\n    tag_18:\n        /* \"#utility.yul\":5772:5776   */\n      0x00\n        /* \"#utility.yul\":5810:5812   */\n      0x20\n        /* \"#utility.yul\":5799:5808   */\n      dup3\n        /* \"#utility.yul\":5795:5813   */\n      add\n        /* \"#utility.yul\":5787:5813   */\n      swap1\n      pop\n        /* \"#utility.yul\":5859:5868   */\n      dup2\n        /* \"#utility.yul\":5853:5857   */\n      dup2\n        /* \"#utility.yul\":5849:5869   */\n      sub\n        /* \"#utility.yul\":5845:5846   */\n      0x00\n        /* \"#utility.yul\":5834:5843   */\n      dup4\n        /* \"#utility.yul\":5830:5847   */\n      add\n        /* \"#utility.yul\":5823:5870   */\n      mstore\n        /* \"#utility.yul\":5887:6015   */\n      tag_166\n        /* \"#utility.yul\":6010:6014   */\n      dup2\n        /* \"#utility.yul\":6001:6007   */\n      dup5\n        /* \"#utility.yul\":5887:6015   */\n      tag_80\n      jump\t// in\n    tag_166:\n        /* \"#utility.yul\":5879:6015   */\n      swap1\n      pop\n        /* \"#utility.yul\":5609:6022   */\n      swap3\n      swap2\n      pop\n      pop\n      jump\t// out\n        /* \"#utility.yul\":6028:6145   */\n    tag_81:\n        /* \"#utility.yul\":6137:6138   */\n      0x00\n        /* \"#utility.yul\":6134:6135   */\n      dup1\n        /* \"#utility.yul\":6127:6139   */\n      revert\n        /* \"#utility.yul\":6151:6268   */\n    tag_82:\n        /* \"#utility.yul\":6260:6261   */\n      0x00\n        /* \"#utility.yul\":6257:6258   */\n      dup1\n        /* \"#utility.yul\":6250:6262   */\n      revert\n        /* \"#utility.yul\":6274:6454   */\n    tag_83:\n        /* \"#utility.yul\":6322:6399   */\n      0x4e487b7100000000000000000000000000000000000000000000000000000000\n        /* \"#utility.yul\":6319:6320   */\n      0x00\n        /* \"#utility.yul\":6312:6400   */\n      mstore\n        /* \"#utility.yul\":6419:6423   */\n      0x41\n        /* \"#utility.yul\":6416:6417   */\n      0x04\n        /* \"#utility.yul\":6409:6424   */\n      mstore\n        /* \"#utility.yul\":6443:6447   */\n      0x24\n        /* \"#utility.yul\":6440:6441   */\n      0x00\n        /* \"#utility.yul\":6433:6448   */\n      revert\n        /* \"#utility.yul\":6460:6741   */\n    tag_84:\n        /* \"#utility.yul\":6543:6570   */\n      tag_171\n        /* \"#utility.yul\":6565:6569   */\n      dup3\n        /* \"#utility.yul\":6543:6570   */\n      tag_71\n      jump\t// in\n    tag_171:\n        /* \"#utility.yul\":6535:6541   */\n      dup2\n        /* \"#utility.yul\":6531:6571   */\n      add\n        /* \"#utility.yul\":6673:6679   */\n      dup2\n        /* \"#utility.yul\":6661:6671   */\n      dup2\n        /* \"#utility.yul\":6658:6680   */\n      lt\n        /* \"#utility.yul\":6637:6655   */\n      0xffffffffffffffff\n        /* \"#utility.yul\":6625:6635   */\n      dup3\n        /* \"#utility.yul\":6622:6656   */\n      gt\n        /* \"#utility.yul\":6619:6681   */\n      or\n        /* \"#utility.yul\":6616:6704   */\n      iszero\n      tag_172\n      jumpi\n        /* \"#utility.yul\":6684:6702   */\n      tag_173\n      tag_83\n      jump\t// in\n    tag_173:\n        /* \"#utility.yul\":6616:6704   */\n    tag_172:\n        /* \"#utility.yul\":6724:6734   */\n      dup1\n        /* \"#utility.yul\":6720:6722   */\n      0x40\n        /* \"#utility.yul\":6713:6735   */\n      mstore\n        /* \"#utility.yul\":6503:6741   */\n      pop\n        /* \"#utility.yul\":6460:6741   */\n      pop\n      pop\n      jump\t// out\n        /* \"#utility.yul\":6747:6876   */\n    tag_85:\n        /* \"#utility.yul\":6781:6787   */\n      0x00\n        /* \"#utility.yul\":6808:6828   */\n      tag_175\n      tag_58\n      jump\t// in\n    tag_175:\n        /* \"#utility.yul\":6798:6828   */\n      swap1\n      pop\n        /* \"#utility.yul\":6837:6870   */\n      tag_176\n        /* \"#utility.yul\":6865:6869   */\n      dup3\n        /* \"#utility.yul\":6857:6863   */\n      dup3\n        /* \"#utility.yul\":6837:6870   */\n      tag_84\n      jump\t// in\n    tag_176:\n        /* \"#utility.yul\":6747:6876   */\n      swap2\n      swap1\n      pop\n      jump\t// out\n        /* \"#utility.yul\":6882:7190   */\n    tag_86:\n        /* \"#utility.yul\":6944:6948   */\n      0x00\n        /* \"#utility.yul\":7034:7052   */\n      0xffffffffffffffff\n        /* \"#utility.yul\":7026:7032   */\n      dup3\n        /* \"#utility.yul\":7023:7053   */\n      gt\n        /* \"#utility.yul\":7020:7076   */\n      iszero\n      tag_178\n      jumpi\n        /* \"#utility.yul\":7056:7074   */\n      tag_179\n      tag_83\n      jump\t// in\n    tag_179:\n        /* \"#utility.yul\":7020:7076   */\n    tag_178:\n        /* \"#utility.yul\":7094:7123   */\n      tag_180\n        /* \"#utility.yul\":7116:7122   */\n      dup3\n        /* \"#utility.yul\":7094:7123   */\n      tag_71\n      jump\t// in\n    tag_180:\n        /* \"#utility.yul\":7086:7123   */\n      swap1\n      pop\n        /* \"#utility.yul\":7178:7182   */\n      0x20\n        /* \"#utility.yul\":7172:7176   */\n      dup2\n        /* \"#utility.yul\":7168:7183   */\n      add\n        /* \"#utility.yul\":7160:7183   */\n      swap1\n      pop\n        /* \"#utility.yul\":6882:7190   */\n      swap2\n      swap1\n      pop\n      jump\t// out\n        /* \"#utility.yul\":7196:7344   */\n    tag_87:\n        /* \"#utility.yul\":7294:7300   */\n      dup3\n        /* \"#utility.yul\":7289:7292   */\n      dup2\n        /* \"#utility.yul\":7284:7287   */\n      dup4\n        /* \"#utility.yul\":7271:7301   */\n      calldatacopy\n        /* \"#utility.yul\":7335:7336   */\n      0x00\n        /* \"#utility.yul\":7326:7332   */\n      dup4\n        /* \"#utility.yul\":7321:7324   */\n      dup4\n        /* \"#utility.yul\":7317:7333   */\n      add\n        /* \"#utility.yul\":7310:7337   */\n      mstore\n        /* \"#utility.yul\":7196:7344   */\n      pop\n      pop\n      pop\n      jump\t// out\n        /* \"#utility.yul\":7350:7775   */\n    tag_88:\n        /* \"#utility.yul\":7428:7433   */\n      0x00\n        /* \"#utility.yul\":7453:7519   */\n      tag_183\n        /* \"#utility.yul\":7469:7518   */\n      tag_184\n        /* \"#utility.yul\":7511:7517   */\n      dup5\n        /* \"#utility.yul\":7469:7518   */\n      tag_86\n      jump\t// in\n    tag_184:\n        /* \"#utility.yul\":7453:7519   */\n      tag_85\n      jump\t// in\n    tag_183:\n        /* \"#utility.yul\":7444:7519   */\n      swap1\n      pop\n        /* \"#utility.yul\":7542:7548   */\n      dup3\n        /* \"#utility.yul\":7535:7540   */\n      dup2\n        /* \"#utility.yul\":7528:7549   */\n      mstore\n        /* \"#utility.yul\":7580:7584   */\n      0x20\n        /* \"#utility.yul\":7573:7578   */\n      dup2\n        /* \"#utility.yul\":7569:7585   */\n      add\n        /* \"#utility.yul\":7618:7621   */\n      dup5\n        /* \"#utility.yul\":7609:7615   */\n      dup5\n        /* \"#utility.yul\":7604:7607   */\n      dup5\n        /* \"#utility.yul\":7600:7616   */\n      add\n        /* \"#utility.yul\":7597:7622   */\n      gt\n        /* \"#utility.yul\":7594:7706   */\n      iszero\n      tag_185\n      jumpi\n        /* \"#utility.yul\":7625:7704   */\n      tag_186\n      tag_82\n      jump\t// in\n    tag_186:\n        /* \"#utility.yul\":7594:7706   */\n    tag_185:\n        /* \"#utility.yul\":7715:7769   */\n      tag_187\n        /* \"#utility.yul\":7762:7768   */\n      dup5\n        /* \"#utility.yul\":7757:7760   */\n      dup3\n        /* \"#utility.yul\":7752:7755   */\n      dup6\n        /* \"#utility.yul\":7715:7769   */\n      tag_87\n      jump\t// in\n    tag_187:\n        /* \"#utility.yul\":7434:7775   */\n      pop\n        /* \"#utility.yul\":7350:7775   */\n      swap4\n      swap3\n      pop\n      pop\n      pop\n      jump\t// out\n        /* \"#utility.yul\":7795:8135   */\n    tag_89:\n        /* \"#utility.yul\":7851:7856   */\n      0x00\n        /* \"#utility.yul\":7900:7903   */\n      dup3\n        /* \"#utility.yul\":7893:7897   */\n      0x1f\n        /* \"#utility.yul\":7885:7891   */\n      dup4\n        /* \"#utility.yul\":7881:7898   */\n      add\n        /* \"#utility.yul\":7877:7904   */\n      slt\n        /* \"#utility.yul\":7867:7989   */\n      tag_189\n      jumpi\n        /* \"#utility.yul\":7908:7987   */\n      tag_190\n      tag_81\n      jump\t// in\n    tag_190:\n        /* \"#utility.yul\":7867:7989   */\n    tag_189:\n        /* \"#utility.yul\":8025:8031   */\n      dup2\n        /* \"#utility.yul\":8012:8032   */\n      calldataload\n        /* \"#utility.yul\":8050:8129   */\n      tag_191\n        /* \"#utility.yul\":8125:8128   */\n      dup5\n        /* \"#utility.yul\":8117:8123   */\n      dup3\n        /* \"#utility.yul\":8110:8114   */\n      0x20\n        /* \"#utility.yul\":8102:8108   */\n      dup7\n        /* \"#utility.yul\":8098:8115   */\n      add\n        /* \"#utility.yul\":8050:8129   */\n      tag_88\n      jump\t// in\n    tag_191:\n        /* \"#utility.yul\":8041:8129   */\n      swap2\n      pop\n        /* \"#utility.yul\":7857:8135   */\n      pop\n        /* \"#utility.yul\":7795:8135   */\n      swap3\n      swap2\n      pop\n      pop\n      jump\t// out\n        /* \"#utility.yul\":8141:8650   */\n    tag_21:\n        /* \"#utility.yul\":8210:8216   */\n      0x00\n        /* \"#utility.yul\":8259:8261   */\n      0x20\n        /* \"#utility.yul\":8247:8256   */\n      dup3\n        /* \"#utility.yul\":8238:8245   */\n      dup5\n        /* \"#utility.yul\":8234:8257   */\n      sub\n        /* \"#utility.yul\":8230:8262   */\n      slt\n        /* \"#utility.yul\":8227:8346   */\n      iszero\n      tag_193\n      jumpi\n        /* \"#utility.yul\":8265:8344   */\n      tag_194\n      tag_59\n      jump\t// in\n    tag_194:\n        /* \"#utility.yul\":8227:8346   */\n    tag_193:\n        /* \"#utility.yul\":8413:8414   */\n      0x00\n        /* \"#utility.yul\":8402:8411   */\n      dup3\n        /* \"#utility.yul\":8398:8415   */\n      add\n        /* \"#utility.yul\":8385:8416   */\n      calldataload\n        /* \"#utility.yul\":8443:8461   */\n      0xffffffffffffffff\n        /* \"#utility.yul\":8435:8441   */\n      dup2\n        /* \"#utility.yul\":8432:8462   */\n      gt\n        /* \"#utility.yul\":8429:8546   */\n      iszero\n      tag_195\n      jumpi\n        /* \"#utility.yul\":8465:8544   */\n      tag_196\n      tag_60\n      jump\t// in\n    tag_196:\n        /* \"#utility.yul\":8429:8546   */\n    tag_195:\n        /* \"#utility.yul\":8570:8633   */\n      tag_197\n        /* \"#utility.yul\":8625:8632   */\n      dup5\n        /* \"#utility.yul\":8616:8622   */\n      dup3\n        /* \"#utility.yul\":8605:8614   */\n      dup6\n        /* \"#utility.yul\":8601:8623   */\n      add\n        /* \"#utility.yul\":8570:8633   */\n      tag_89\n      jump\t// in\n    tag_197:\n        /* \"#utility.yul\":8560:8633   */\n      swap2\n      pop\n        /* \"#utility.yul\":8356:8643   */\n      pop\n        /* \"#utility.yul\":8141:8650   */\n      swap3\n      swap2\n      pop\n      pop\n      jump\t// out\n        /* \"#utility.yul\":8656:8836   */\n    tag_90:\n        /* \"#utility.yul\":8704:8781   */\n      0x4e487b7100000000000000000000000000000000000000000000000000000000\n        /* \"#utility.yul\":8701:8702   */\n      0x00\n        /* \"#utility.yul\":8694:8782   */\n      mstore\n        /* \"#utility.yul\":8801:8805   */\n      0x22\n        /* \"#utility.yul\":8798:8799   */\n      0x04\n        /* \"#utility.yul\":8791:8806   */\n      mstore\n        /* \"#utility.yul\":8825:8829   */\n      0x24\n        /* \"#utility.yul\":8822:8823   */\n      0x00\n        /* \"#utility.yul\":8815:8830   */\n      revert\n        /* \"#utility.yul\":8842:9162   */\n    tag_30:\n        /* \"#utility.yul\":8886:8892   */\n      0x00\n        /* \"#utility.yul\":8923:8924   */\n      0x02\n        /* \"#utility.yul\":8917:8921   */\n      dup3\n        /* \"#utility.yul\":8913:8925   */\n      div\n        /* \"#utility.yul\":8903:8925   */\n      swap1\n      pop\n        /* \"#utility.yul\":8970:8971   */\n      0x01\n        /* \"#utility.yul\":8964:8968   */\n      dup3\n        /* \"#utility.yul\":8960:8972   */\n      and\n        /* \"#utility.yul\":8991:9009   */\n      dup1\n        /* \"#utility.yul\":8981:9062   */\n      tag_200\n      jumpi\n        /* \"#utility.yul\":9047:9051   */\n      0x7f\n        /* \"#utility.yul\":9039:9045   */\n      dup3\n        /* \"#utility.yul\":9035:9052   */\n      and\n        /* \"#utility.yul\":9025:9052   */\n      swap2\n      pop\n        /* \"#utility.yul\":8981:9062   */\n    tag_200:\n        /* \"#utility.yul\":9109:9111   */\n      0x20\n        /* \"#utility.yul\":9101:9107   */\n      dup3\n        /* \"#utility.yul\":9098:9112   */\n      lt\n        /* \"#utility.yul\":9078:9096   */\n      dup2\n        /* \"#utility.yul\":9075:9113   */\n      sub\n        /* \"#utility.yul\":9072:9156   */\n      tag_201\n      jumpi\n        /* \"#utility.yul\":9128:9146   */\n      tag_202\n      tag_90\n      jump\t// in\n    tag_202:\n        /* \"#utility.yul\":9072:9156   */\n    tag_201:\n        /* \"#utility.yul\":8893:9162   */\n      pop\n        /* \"#utility.yul\":8842:9162   */\n      swap2\n      swap1\n      pop\n      jump\t// out\n        /* \"#utility.yul\":9168:9309   */\n    tag_91:\n        /* \"#utility.yul\":9217:9221   */\n      0x00\n        /* \"#utility.yul\":9240:9243   */\n      dup2\n        /* \"#utility.yul\":9232:9243   */\n      swap1\n      pop\n        /* \"#utility.yul\":9263:9266   */\n      dup2\n        /* \"#utility.yul\":9260:9261   */\n      0x00\n        /* \"#utility.yul\":9253:9267   */\n      mstore\n        /* \"#utility.yul\":9297:9301   */\n      0x20\n        /* \"#utility.yul\":9294:9295   */\n      0x00\n        /* \"#utility.yul\":9284:9302   */\n      keccak256\n        /* \"#utility.yul\":9276:9302   */\n      swap1\n      pop\n        /* \"#utility.yul\":9168:9309   */\n      swap2\n      swap1\n      pop\n      jump\t// out\n        /* \"#utility.yul\":9315:9408   */\n    tag_92:\n        /* \"#utility.yul\":9352:9358   */\n      0x00\n        /* \"#utility.yul\":9399:9401   */\n      0x20\n        /* \"#utility.yul\":9394:9396   */\n      0x1f\n        /* \"#utility.yul\":9387:9392   */\n      dup4\n        /* \"#utility.yul\":9383:9397   */\n      add\n        /* \"#utility.yul\":9379:9402   */\n      div\n        /* \"#utility.yul\":9369:9402   */\n      swap1\n      pop\n        /* \"#utility.yul\":9315:9408   */\n      swap2\n      swap1\n      pop\n      jump\t// out\n        /* \"#utility.yul\":9414:9521   */\n    tag_93:\n        /* \"#utility.yul\":9458:9466   */\n      0x00\n        /* \"#utility.yul\":9508:9513   */\n      dup3\n        /* \"#utility.yul\":9502:9506   */\n      dup3\n        /* \"#utility.yul\":9498:9514   */\n      shl\n        /* \"#utility.yul\":9477:9514   */\n      swap1\n      pop\n        /* \"#utility.yul\":9414:9521   */\n      swap3\n      swap2\n      pop\n      pop\n      jump\t// out\n        /* \"#utility.yul\":9527:9920   */\n    tag_94:\n        /* \"#utility.yul\":9596:9602   */\n      0x00\n        /* \"#utility.yul\":9646:9647   */\n      0x08\n        /* \"#utility.yul\":9634:9644   */\n      dup4\n        /* \"#utility.yul\":9630:9648   */\n      mul\n        /* \"#utility.yul\":9669:9766   */\n      tag_207\n        /* \"#utility.yul\":9699:9765   */\n      0xffffffffffffffffffffffffffffffffffffffffffffffffffffffffffffffff\n        /* \"#utility.yul\":9688:9697   */\n      dup3\n        /* \"#utility.yul\":9669:9766   */\n      tag_93\n      jump\t// in\n    tag_207:\n        /* \"#utility.yul\":9787:9826   */\n      tag_208\n        /* \"#utility.yul\":9817:9825   */\n      dup7\n        /* \"#utility.yul\":9806:9815   */\n      dup4\n        /* \"#utility.yul\":9787:9826   */\n      tag_93\n      jump\t// in\n    tag_208:\n        /* \"#utility.yul\":9775:9826   */\n      swap6\n      pop\n        /* \"#utility.yul\":9859:9863   */\n      dup1\n        /* \"#utility.yul\":9855:9864   */\n      not\n        /* \"#utility.yul\":9848:9853   */\n      dup5\n        /* \"#utility.yul\":9844:9865   */\n      and\n        /* \"#utility.yul\":9835:9865   */\n      swap4\n      pop\n        /* \"#utility.yul\":9908:9912   */\n      dup1\n        /* \"#utility.yul\":9898:9906   */\n      dup7\n        /* \"#utility.yul\":9894:9913   */\n      and\n        /* \"#utility.yul\":9887:9892   */\n      dup5\n        /* \"#utility.yul\":9884:9914   */\n      or\n        /* \"#utility.yul\":9874:9914   */\n      swap3\n      pop\n        /* \"#utility.yul\":9603:9920   */\n      pop\n      pop\n        /* \"#utility.yul\":9527:9920   */\n      swap4\n      swap3\n      pop\n      pop\n      pop\n      jump\t// out\n        /* \"#utility.yul\":9926:9986   */\n    tag_95:\n        /* \"#utility.yul\":9954:9957   */\n      0x00\n        /* \"#utility.yul\":9975:9980   */\n      dup2\n        /* \"#utility.yul\":9968:9980   */\n      swap1\n      pop\n        /* \"#utility.yul\":9926:9986   */\n      swap2\n      swap1\n      pop\n      jump\t// out\n        /* \"#utility.yul\":9992:10134   */\n    tag_96:\n        /* \"#utility.yul\":10042:10051   */\n      0x00\n        /* \"#utility.yul\":10075:10128   */\n      tag_211\n        /* \"#utility.yul\":10093:10127   */\n      tag_212\n        /* \"#utility.yul\":10102:10126   */\n      tag_213\n        /* \"#utility.yul\":10120:10125   */\n      dup5\n        /* \"#utility.yul\":10102:10126   */\n      tag_65\n      jump\t// in\n    tag_213:\n        /* \"#utility.yul\":10093:10127   */\n      tag_95\n      jump\t// in\n    tag_212:\n        /* \"#utility.yul\":10075:10128   */\n      tag_65\n      jump\t// in\n    tag_211:\n        /* \"#utility.yul\":10062:10128   */\n      swap1\n      pop\n        /* \"#utility.yul\":9992:10134   */\n      swap2\n      swap1\n      pop\n      jump\t// out\n        /* \"#utility.yul\":10140:10215   */\n    tag_97:\n        /* \"#utility.yul\":10183:10186   */\n      0x00\n        /* \"#utility.yul\":10204:10209   */\n      dup2\n        /* \"#utility.yul\":10197:10209   */\n      swap1\n      pop\n        /* \"#utility.yul\":10140:10215   */\n      swap2\n      swap1\n      pop\n      jump\t// out\n        /* \"#utility.yul\":10221:10490   */\n    tag_98:\n        /* \"#utility.yul\":10331:10370   */\n      tag_216\n        /* \"#utility.yul\":10362:10369   */\n      dup4\n        /* \"#utility.yul\":10331:10370   */\n      tag_96\n      jump\t// in\n    tag_216:\n        /* \"#utility.yul\":10392:10483   */\n      tag_217\n        /* \"#utility.yul\":10441:10482   */\n      tag_218\n        /* \"#utility.yul\":10465:10481   */\n      dup3\n        /* \"#utility.yul\":10441:10482   */\n      tag_97\n      jump\t// in\n    tag_218:\n        /* \"#utility.yul\":10433:10439   */\n      dup5\n        /* \"#utility.yul\":10426:10430   */\n      dup5\n        /* \"#utility.yul\":10420:10431   */\n      sload\n        /* \"#utility.yul\":10392:10483   */\n      tag_94\n      jump\t// in\n    tag_217:\n        /* \"#utility.yul\":10386:10390   */\n      dup3\n        /* \"#utility.yul\":10379:10484   */\n      sstore\n        /* \"#utility.yul\":10297:10490   */\n      pop\n        /* \"#utility.yul\":10221:10490   */\n      pop\n      pop\n      pop\n      jump\t// out\n        /* \"#utility.yul\":10496:10569   */\n    tag_99:\n        /* \"#utility.yul\":10541:10544   */\n      0x00\n        /* \"#utility.yul\":10496:10569   */\n      swap1\n      jump\t// out\n        /* \"#utility.yul\":10575:10764   */\n    tag_100:\n        /* \"#utility.yul\":10652:10684   */\n      tag_221\n      tag_99\n      jump\t// in\n    tag_221:\n        /* \"#utility.yul\":10693:10758   */\n      tag_222\n        /* \"#utility.yul\":10751:10757   */\n      dup2\n        /* \"#utility.yul\":10743:10749   */\n      dup5\n        /* \"#utility.yul\":10737:10741   */\n      dup5\n        /* \"#utility.yul\":10693:10758   */\n      tag_98\n      jump\t// in\n    tag_222:\n        /* \"#utility.yul\":10628:10764   */\n      pop\n        /* \"#utility.yul\":10575:10764   */\n      pop\n      pop\n      jump\t// out\n        /* \"#utility.yul\":10770:10956   */\n    tag_101:\n        /* \"#utility.yul\":10830:10950   */\n    tag_224:\n        /* \"#utility.yul\":10847:10850   */\n      dup2\n        /* \"#utility.yul\":10840:10845   */\n      dup2\n        /* \"#utility.yul\":10837:10851   */\n      lt\n        /* \"#utility.yul\":10830:10950   */\n      iszero\n      tag_226\n      jumpi\n        /* \"#utility.yul\":10901:10940   */\n      tag_227\n        /* \"#utility.yul\":10938:10939   */\n      0x00\n        /* \"#utility.yul\":10931:10936   */\n      dup3\n        /* \"#utility.yul\":10901:10940   */\n      tag_100\n      jump\t// in\n    tag_227:\n        /* \"#utility.yul\":10874:10875   */\n      0x01\n        /* \"#utility.yul\":10867:10872   */\n      dup2\n        /* \"#utility.yul\":10863:10876   */\n      add\n        /* \"#utility.yul\":10854:10876   */\n      swap1\n      pop\n        /* \"#utility.yul\":10830:10950   */\n      jump(tag_224)\n    tag_226:\n        /* \"#utility.yul\":10770:10956   */\n      pop\n      pop\n      jump\t// out\n        /* \"#utility.yul\":10962:11505   */\n    tag_102:\n        /* \"#utility.yul\":11063:11065   */\n      0x1f\n        /* \"#utility.yul\":11058:11061   */\n      dup3\n        /* \"#utility.yul\":11055:11066   */\n      gt\n        /* \"#utility.yul\":11052:11498   */\n      iszero\n      tag_229\n      jumpi\n        /* \"#utility.yul\":11097:11135   */\n      tag_230\n        /* \"#utility.yul\":11129:11134   */\n      dup2\n        /* \"#utility.yul\":11097:11135   */\n      tag_91\n      jump\t// in\n    tag_230:\n        /* \"#utility.yul\":11181:11210   */\n      tag_231\n        /* \"#utility.yul\":11199:11209   */\n      dup5\n        /* \"#utility.yul\":11181:11210   */\n      tag_92\n      jump\t// in\n    tag_231:\n        /* \"#utility.yul\":11171:11179   */\n      dup2\n        /* \"#utility.yul\":11167:11211   */\n      add\n        /* \"#utility.yul\":11364:11366   */\n      0x20\n        /* \"#utility.yul\":11352:11362   */\n      dup6\n        /* \"#utility.yul\":11349:11367   */\n      lt\n        /* \"#utility.yul\":11346:11395   */\n      iszero\n      tag_232\n      jumpi\n        /* \"#utility.yul\":11385:11393   */\n      dup2\n        /* \"#utility.yul\":11370:11393   */\n      swap1\n      pop\n        /* \"#utility.yul\":11346:11395   */\n    tag_232:\n        /* \"#utility.yul\":11408:11488   */\n      tag_233\n        /* \"#utility.yul\":11464:11486   */\n      tag_234\n        /* \"#utility.yul\":11482:11485   */\n      dup6\n        /* \"#utility.yul\":11464:11486   */\n      tag_92\n      jump\t// in\n    tag_234:\n        /* \"#utility.yul\":11454:11462   */\n      dup4\n        /* \"#utility.yul\":11450:11487   */\n      add\n        /* \"#utility.yul\":11437:11448   */\n      dup3\n        /* \"#utility.yul\":11408:11488   */\n      tag_101\n      jump\t// in\n    tag_233:\n        /* \"#utility.yul\":11067:11498   */\n      pop\n      pop\n        /* \"#utility.yul\":11052:11498   */\n    tag_229:\n        /* \"#utility.yul\":10962:11505   */\n      pop\n      pop\n      pop\n      jump\t// out\n        /* \"#utility.yul\":11511:11628   */\n    tag_103:\n        /* \"#utility.yul\":11565:11573   */\n      0x00\n        /* \"#utility.yul\":11615:11620   */\n      dup3\n        /* \"#utility.yul\":11609:11613   */\n      dup3\n        /* \"#utility.yul\":11605:11621   */\n      shr\n        /* \"#utility.yul\":11584:11621   */\n      swap1\n      pop\n        /* \"#utility.yul\":11511:11628   */\n      swap3\n      swap2\n      pop\n      pop\n      jump\t// out\n        /* \"#utility.yul\":11634:11803   */\n    tag_104:\n        /* \"#utility.yul\":11678:11684   */\n      0x00\n        /* \"#utility.yul\":11711:11762   */\n      tag_237\n        /* \"#utility.yul\":11759:11760   */\n      0x00\n        /* \"#utility.yul\":11755:11761   */\n      not\n        /* \"#utility.yul\":11747:11752   */\n      dup5\n        /* \"#utility.yul\":11744:11745   */\n      0x08\n        /* \"#utility.yul\":11740:11753   */\n      mul\n        /* \"#utility.yul\":11711:11762   */\n      tag_103\n      jump\t// in\n    tag_237:\n        /* \"#utility.yul\":11707:11763   */\n      not\n        /* \"#utility.yul\":11792:11796   */\n      dup1\n        /* \"#utility.yul\":11786:11790   */\n      dup4\n        /* \"#utility.yul\":11782:11797   */\n      and\n        /* \"#utility.yul\":11772:11797   */\n      swap2\n      pop\n        /* \"#utility.yul\":11685:11803   */\n      pop\n        /* \"#utility.yul\":11634:11803   */\n      swap3\n      swap2\n      pop\n      pop\n      jump\t// out\n        /* \"#utility.yul\":11808:12103   */\n    tag_105:\n        /* \"#utility.yul\":11884:11888   */\n      0x00\n        /* \"#utility.yul\":12030:12059   */\n      tag_239\n        /* \"#utility.yul\":12055:12058   */\n      dup4\n        /* \"#utility.yul\":12049:12053   */\n      dup4\n        /* \"#utility.yul\":12030:12059   */\n      tag_104\n      jump\t// in\n    tag_239:\n        /* \"#utility.yul\":12022:12059   */\n      swap2\n      pop\n        /* \"#utility.yul\":12092:12095   */\n      dup3\n        /* \"#utility.yul\":12089:12090   */\n      0x02\n        /* \"#utility.yul\":12085:12096   */\n      mul\n        /* \"#utility.yul\":12079:12083   */\n      dup3\n        /* \"#utility.yul\":12076:12097   */\n      or\n        /* \"#utility.yul\":12068:12097   */\n      swap1\n      pop\n        /* \"#utility.yul\":11808:12103   */\n      swap3\n      swap2\n      pop\n      pop\n      jump\t// out\n        /* \"#utility.yul\":12108:13503   */\n    tag_47:\n        /* \"#utility.yul\":12225:12262   */\n      tag_241\n        /* \"#utility.yul\":12258:12261   */\n      dup3\n        /* \"#utility.yul\":12225:12262   */\n      tag_68\n      jump\t// in\n    tag_241:\n        /* \"#utility.yul\":12327:12345   */\n      0xffffffffffffffff\n        /* \"#utility.yul\":12319:12325   */\n      dup2\n        /* \"#utility.yul\":12316:12346   */\n      gt\n        /* \"#utility.yul\":12313:12369   */\n      iszero\n      tag_242\n      jumpi\n        /* \"#utility.yul\":12349:12367   */\n      tag_243\n      tag_83\n      jump\t// in\n    tag_243:\n        /* \"#utility.yul\":12313:12369   */\n    tag_242:\n        /* \"#utility.yul\":12393:12431   */\n      tag_244\n        /* \"#utility.yul\":12425:12429   */\n      dup3\n        /* \"#utility.yul\":12419:12430   */\n      sload\n        /* \"#utility.yul\":12393:12431   */\n      tag_30\n      jump\t// in\n    tag_244:\n        /* \"#utility.yul\":12478:12545   */\n      tag_245\n        /* \"#utility.yul\":12538:12544   */\n      dup3\n        /* \"#utility.yul\":12530:12536   */\n      dup3\n        /* \"#utility.yul\":12524:12528   */\n      dup6\n        /* \"#utility.yul\":12478:12545   */\n      tag_102\n      jump\t// in\n    tag_245:\n        /* \"#utility.yul\":12572:12573   */\n      0x00\n        /* \"#utility.yul\":12596:12600   */\n      0x20\n        /* \"#utility.yul\":12583:12600   */\n      swap1\n      pop\n        /* \"#utility.yul\":12628:12630   */\n      0x1f\n        /* \"#utility.yul\":12620:12626   */\n      dup4\n        /* \"#utility.yul\":12617:12631   */\n      gt\n        /* \"#utility.yul\":12645:12646   */\n      0x01\n        /* \"#utility.yul\":12640:13258   */\n      dup2\n      eq\n      tag_247\n      jumpi\n        /* \"#utility.yul\":13302:13303   */\n      0x00\n        /* \"#utility.yul\":13319:13325   */\n      dup5\n        /* \"#utility.yul\":13316:13393   */\n      iszero\n      tag_248\n      jumpi\n        /* \"#utility.yul\":13368:13377   */\n      dup3\n        /* \"#utility.yul\":13363:13366   */\n      dup8\n        /* \"#utility.yul\":13359:13378   */\n      add\n        /* \"#utility.yul\":13353:13379   */\n      mload\n        /* \"#utility.yul\":13344:13379   */\n      swap1\n      pop\n        /* \"#utility.yul\":13316:13393   */\n    tag_248:\n        /* \"#utility.yul\":13419:13486   */\n      tag_249\n        /* \"#utility.yul\":13479:13485   */\n      dup6\n        /* \"#utility.yul\":13472:13477   */\n      dup3\n        /* \"#utility.yul\":13419:13486   */\n      tag_105\n      jump\t// in\n    tag_249:\n        /* \"#utility.yul\":13413:13417   */\n      dup7\n        /* \"#utility.yul\":13406:13487   */\n      sstore\n        /* \"#utility.yul\":13275:13497   */\n      pop\n        /* \"#utility.yul\":12610:13497   */\n      jump(tag_246)\n        /* \"#utility.yul\":12640:13258   */\n    tag_247:\n        /* \"#utility.yul\":12692:12696   */\n      0x1f\n        /* \"#utility.yul\":12688:12697   */\n      not\n        /* \"#utility.yul\":12680:12686   */\n      dup5\n        /* \"#utility.yul\":12676:12698   */\n      and\n        /* \"#utility.yul\":12726:12763   */\n      tag_250\n        /* \"#utility.yul\":12758:12762   */\n      dup7\n        /* \"#utility.yul\":12726:12763   */\n      tag_91\n      jump\t// in\n    tag_250:\n        /* \"#utility.yul\":12785:12786   */\n      0x00\n        /* \"#utility.yul\":12799:13007   */\n    tag_251:\n        /* \"#utility.yul\":12813:12820   */\n      dup3\n        /* \"#utility.yul\":12810:12811   */\n      dup2\n        /* \"#utility.yul\":12807:12821   */\n      lt\n        /* \"#utility.yul\":12799:13007   */\n      iszero\n      tag_253\n      jumpi\n        /* \"#utility.yul\":12892:12901   */\n      dup5\n        /* \"#utility.yul\":12887:12890   */\n      dup10\n        /* \"#utility.yul\":12883:12902   */\n      add\n        /* \"#utility.yul\":12877:12903   */\n      mload\n        /* \"#utility.yul\":12869:12875   */\n      dup3\n        /* \"#utility.yul\":12862:12904   */\n      sstore\n        /* \"#utility.yul\":12943:12944   */\n      0x01\n        /* \"#utility.yul\":12935:12941   */\n      dup3\n        /* \"#utility.yul\":12931:12945   */\n      add\n        /* \"#utility.yul\":12921:12945   */\n      swap2\n      pop\n        /* \"#utility.yul\":12990:12992   */\n      0x20\n        /* \"#utility.yul\":12979:12988   */\n      dup6\n        /* \"#utility.yul\":12975:12993   */\n      add\n        /* \"#utility.yul\":12962:12993   */\n      swap5\n      pop\n        /* \"#utility.yul\":12836:12840   */\n      0x20\n        /* \"#utility.yul\":12833:12834   */\n      dup2\n        /* \"#utility.yul\":12829:12841   */\n      add\n        /* \"#utility.yul\":12824:12841   */\n      swap1\n      pop\n        /* \"#utility.yul\":12799:13007   */\n      jump(tag_251)\n    tag_253:\n        /* \"#utility.yul\":13035:13041   */\n      dup7\n        /* \"#utility.yul\":13026:13033   */\n      dup4\n        /* \"#utility.yul\":13023:13042   */\n      lt\n        /* \"#utility.yul\":13020:13199   */\n      iszero\n      tag_254\n      jumpi\n        /* \"#utility.yul\":13093:13102   */\n      dup5\n        /* \"#utility.yul\":13088:13091   */\n      dup10\n        /* \"#utility.yul\":13084:13103   */\n      add\n        /* \"#utility.yul\":13078:13104   */\n      mload\n        /* \"#utility.yul\":13136:13184   */\n      tag_255\n        /* \"#utility.yul\":13178:13182   */\n      0x1f\n        /* \"#utility.yul\":13170:13176   */\n      dup10\n        /* \"#utility.yul\":13166:13183   */\n      and\n        /* \"#utility.yul\":13155:13164   */\n      dup3\n        /* \"#utility.yul\":13136:13184   */\n      tag_104\n      jump\t// in\n    tag_255:\n        /* \"#utility.yul\":13128:13134   */\n      dup4\n        /* \"#utility.yul\":13121:13185   */\n      sstore\n        /* \"#utility.yul\":13043:13199   */\n      pop\n        /* \"#utility.yul\":13020:13199   */\n    tag_254:\n        /* \"#utility.yul\":13245:13246   */\n      0x01\n        /* \"#utility.yul\":13241:13242   */\n      0x02\n        /* \"#utility.yul\":13233:13239   */\n      dup9\n        /* \"#utility.yul\":13229:13243   */\n      mul\n        /* \"#utility.yul\":13225:13247   */\n      add\n        /* \"#utility.yul\":13219:13223   */\n      dup9\n        /* \"#utility.yul\":13212:13248   */\n      sstore\n        /* \"#utility.yul\":12647:13258   */\n      pop\n      pop\n      pop\n        /* \"#utility.yul\":12610:13497   */\n    tag_246:\n      pop\n        /* \"#utility.yul\":12200:13503   */\n      pop\n      pop\n      pop\n        /* \"#utility.yul\":12108:13503   */\n      pop\n      pop\n      jump\t// out\n        /* \"#utility.yul\":13509:13689   */\n    tag_51:\n        /* \"#utility.yul\":13557:13634   */\n      0x4e487b7100000000000000000000000000000000000000000000000000000000\n        /* \"#utility.yul\":13554:13555   */\n      0x00\n        /* \"#utility.yul\":13547:13635   */\n      mstore\n        /* \"#utility.yul\":13654:13658   */\n      0x32\n        /* \"#utility.yul\":13651:13652   */\n      0x04\n        /* \"#utility.yul\":13644:13659   */\n      mstore\n        /* \"#utility.yul\":13678:13682   */\n      0x24\n        /* \"#utility.yul\":13675:13676   */\n      0x00\n        /* \"#utility.yul\":13668:13683   */\n      revert\n\n    auxdata: 0xa26469706673582212207a7b8f17f15f98a141e44d615bf1578d20c0314d54610874b9539d63df87453d64736f6c634300081a0033\n}\n",
				"bytecode": {
					"linkReferences": {},
					"object": "6080604052348015600e575f80fd5b50610b698061001c5f395ff3fe608060405234801561000f575f80fd5b506004361061004a575f3560e01c806305a1b4a91461004e57806312e7ee1c1461007e57806359ee12bc146100ae578063bade444a146100ca575b5f80fd5b610068600480360381019061006391906104ae565b6100fa565b604051610075919061055c565b60405180910390f35b6100986004803603810190610093919061057c565b6101aa565b6040516100a591906106aa565b60405180910390f35b6100c860048036038101906100c391906107f6565b6102ba565b005b6100e460048036038101906100df91906104ae565b610329565b6040516100f1919061055c565b60405180910390f35b5f602052815f5260405f208181548110610112575f80fd5b905f5260205f20015f9150915050805461012b9061086a565b80601f01602080910402602001604051908101604052809291908181526020018280546101579061086a565b80156101a25780601f10610179576101008083540402835291602001916101a2565b820191905f5260205f20905b81548152906001019060200180831161018557829003601f168201915b505050505081565b60605f808373ffffffffffffffffffffffffffffffffffffffff1673ffffffffffffffffffffffffffffffffffffffff1681526020019081526020015f20805480602002602001604051908101604052809291908181526020015f905b828210156102af578382905f5260205f200180546102249061086a565b80601f01602080910402602001604051908101604052809291908181526020018280546102509061086a565b801561029b5780601f106102725761010080835404028352916020019161029b565b820191905f5260205f20905b81548152906001019060200180831161027e57829003601f168201915b505050505081526020019060010190610207565b505050509050919050565b5f803373ffffffffffffffffffffffffffffffffffffffff1673ffffffffffffffffffffffffffffffffffffffff1681526020019081526020015f2081908060018154018082558091505060019003905f5260205f20015f9091909190915090816103259190610a37565b5050565b60605f808473ffffffffffffffffffffffffffffffffffffffff1673ffffffffffffffffffffffffffffffffffffffff1681526020019081526020015f20828154811061037957610378610b06565b5b905f5260205f2001805461038c9061086a565b80601f01602080910402602001604051908101604052809291908181526020018280546103b89061086a565b80156104035780601f106103da57610100808354040283529160200191610403565b820191905f5260205f20905b8154815290600101906020018083116103e657829003601f168201915b5050505050905092915050565b5f604051905090565b5f80fd5b5f80fd5b5f73ffffffffffffffffffffffffffffffffffffffff82169050919050565b5f61044a82610421565b9050919050565b61045a81610440565b8114610464575f80fd5b50565b5f8135905061047581610451565b92915050565b5f819050919050565b61048d8161047b565b8114610497575f80fd5b50565b5f813590506104a881610484565b92915050565b5f80604083850312156104c4576104c3610419565b5b5f6104d185828601610467565b92505060206104e28582860161049a565b9150509250929050565b5f81519050919050565b5f82825260208201905092915050565b8281835e5f83830152505050565b5f601f19601f8301169050919050565b5f61052e826104ec565b61053881856104f6565b9350610548818560208601610506565b61055181610514565b840191505092915050565b5f6020820190508181035f8301526105748184610524565b905092915050565b5f6020828403121561059157610590610419565b5b5f61059e84828501610467565b91505092915050565b5f81519050919050565b5f82825260208201905092915050565b5f819050602082019050919050565b5f82825260208201905092915050565b5f6105ea826104ec565b6105f481856105d0565b9350610604818560208601610506565b61060d81610514565b840191505092915050565b5f61062383836105e0565b905092915050565b5f602082019050919050565b5f610641826105a7565b61064b81856105b1565b93508360208202850161065d856105c1565b805f5b8581101561069857848403895281516106798582610618565b94506106848361062b565b925060208a01995050600181019050610660565b50829750879550505050505092915050565b5f6020820190508181035f8301526106c28184610637565b905092915050565b5f80fd5b5f80fd5b7f4e487b71000000000000000000000000000000000000000000000000000000005f52604160045260245ffd5b61070882610514565b810181811067ffffffffffffffff82111715610727576107266106d2565b5b80604052505050565b5f610739610410565b905061074582826106ff565b919050565b5f67ffffffffffffffff821115610764576107636106d2565b5b61076d82610514565b9050602081019050919050565b828183375f83830152505050565b5f61079a6107958461074a565b610730565b9050828152602081018484840111156107b6576107b56106ce565b5b6107c184828561077a565b509392505050565b5f82601f8301126107dd576107dc6106ca565b5b81356107ed848260208601610788565b91505092915050565b5f6020828403121561080b5761080a610419565b5b5f82013567ffffffffffffffff8111156108285761082761041d565b5b610834848285016107c9565b91505092915050565b7f4e487b71000000000000000000000000000000000000000000000000000000005f52602260045260245ffd5b5f600282049050600182168061088157607f821691505b6020821081036108945761089361083d565b5b50919050565b5f819050815f5260205f209050919050565b5f6020601f8301049050919050565b5f82821b905092915050565b5f600883026108f67fffffffffffffffffffffffffffffffffffffffffffffffffffffffffffffffff826108bb565b61090086836108bb565b95508019841693508086168417925050509392505050565b5f819050919050565b5f61093b6109366109318461047b565b610918565b61047b565b9050919050565b5f819050919050565b61095483610921565b61096861096082610942565b8484546108c7565b825550505050565b5f90565b61097c610970565b61098781848461094b565b505050565b5b818110156109aa5761099f5f82610974565b60018101905061098d565b5050565b601f8211156109ef576109c08161089a565b6109c9846108ac565b810160208510156109d8578190505b6109ec6109e4856108ac565b83018261098c565b50505b505050565b5f82821c905092915050565b5f610a0f5f19846008026109f4565b1980831691505092915050565b5f610a278383610a00565b9150826002028217905092915050565b610a40826104ec565b67ffffffffffffffff811115610a5957610a586106d2565b5b610a63825461086a565b610a6e8282856109ae565b5f60209050601f831160018114610a9f575f8415610a8d578287015190505b610a978582610a1c565b865550610afe565b601f198416610aad8661089a565b5f5b82811015610ad457848901518255600182019150602085019450602081019050610aaf565b86831015610af15784890151610aed601f891682610a00565b8355505b6001600288020188555050505b505050505050565b7f4e487b71000000000000000000000000000000000000000000000000000000005f52603260045260245ffdfea26469706673582212207a7b8f17f15f98a141e44d615bf1578d20c0314d54610874b9539d63df87453d64736f6c634300081a0033",
					"opcodes": "PUSH1 0x80 PUSH1 0x40 MSTORE CALLVALUE DUP1 ISZERO PUSH1 0xE JUMPI PUSH0 DUP1 REVERT JUMPDEST POP PUSH2 0xB69 DUP1 PUSH2 0x1C PUSH0 CODECOPY PUSH0 RETURN INVALID PUSH1 0x80 PUSH1 0x40 MSTORE CALLVALUE DUP1 ISZERO PUSH2 0xF JUMPI PUSH0 DUP1 REVERT JUMPDEST POP PUSH1 0x4 CALLDATASIZE LT PUSH2 0x4A JUMPI PUSH0 CALLDATALOAD PUSH1 0xE0 SHR DUP1 PUSH4 0x5A1B4A9 EQ PUSH2 0x4E JUMPI DUP1 PUSH4 0x12E7EE1C EQ PUSH2 0x7E JUMPI DUP1 PUSH4 0x59EE12BC EQ PUSH2 0xAE JUMPI DUP1 PUSH4 0xBADE444A EQ PUSH2 0xCA JUMPI JUMPDEST PUSH0 DUP1 REVERT JUMPDEST PUSH2 0x68 PUSH1 0x4 DUP1 CALLDATASIZE SUB DUP2 ADD SWAP1 PUSH2 0x63 SWAP2 SWAP1 PUSH2 0x4AE JUMP JUMPDEST PUSH2 0xFA JUMP JUMPDEST PUSH1 0x40 MLOAD PUSH2 0x75 SWAP2 SWAP1 PUSH2 0x55C JUMP JUMPDEST PUSH1 0x40 MLOAD DUP1 SWAP2 SUB SWAP1 RETURN JUMPDEST PUSH2 0x98 PUSH1 0x4 DUP1 CALLDATASIZE SUB DUP2 ADD SWAP1 PUSH2 0x93 SWAP2 SWAP1 PUSH2 0x57C JUMP JUMPDEST PUSH2 0x1AA JUMP JUMPDEST PUSH1 0x40 MLOAD PUSH2 0xA5 SWAP2 SWAP1 PUSH2 0x6AA JUMP JUMPDEST PUSH1 0x40 MLOAD DUP1 SWAP2 SUB SWAP1 RETURN JUMPDEST PUSH2 0xC8 PUSH1 0x4 DUP1 CALLDATASIZE SUB DUP2 ADD SWAP1 PUSH2 0xC3 SWAP2 SWAP1 PUSH2 0x7F6 JUMP JUMPDEST PUSH2 0x2BA JUMP JUMPDEST STOP JUMPDEST PUSH2 0xE4 PUSH1 0x4 DUP1 CALLDATASIZE SUB DUP2 ADD SWAP1 PUSH2 0xDF SWAP2 SWAP1 PUSH2 0x4AE JUMP JUMPDEST PUSH2 0x329 JUMP JUMPDEST PUSH1 0x40 MLOAD PUSH2 0xF1 SWAP2 SWAP1 PUSH2 0x55C JUMP JUMPDEST PUSH1 0x40 MLOAD DUP1 SWAP2 SUB SWAP1 RETURN JUMPDEST PUSH0 PUSH1 0x20 MSTORE DUP2 PUSH0 MSTORE PUSH1 0x40 PUSH0 KECCAK256 DUP2 DUP2 SLOAD DUP2 LT PUSH2 0x112 JUMPI PUSH0 DUP1 REVERT JUMPDEST SWAP1 PUSH0 MSTORE PUSH1 0x20 PUSH0 KECCAK256 ADD PUSH0 SWAP2 POP SWAP2 POP POP DUP1 SLOAD PUSH2 0x12B SWAP1 PUSH2 0x86A JUMP JUMPDEST DUP1 PUSH1 0x1F ADD PUSH1 0x20 DUP1 SWAP2 DIV MUL PUSH1 0x20 ADD PUSH1 0x40 MLOAD SWAP1 DUP2 ADD PUSH1 0x40 MSTORE DUP1 SWAP3 SWAP2 SWAP1 DUP2 DUP2 MSTORE PUSH1 0x20 ADD DUP3 DUP1 SLOAD PUSH2 0x157 SWAP1 PUSH2 0x86A JUMP JUMPDEST DUP1 ISZERO PUSH2 0x1A2 JUMPI DUP1 PUSH1 0x1F LT PUSH2 0x179 JUMPI PUSH2 0x100 DUP1 DUP4 SLOAD DIV MUL DUP4 MSTORE SWAP2 PUSH1 0x20 ADD SWAP2 PUSH2 0x1A2 JUMP JUMPDEST DUP3 ADD SWAP2 SWAP1 PUSH0 MSTORE PUSH1 0x20 PUSH0 KECCAK256 SWAP1 JUMPDEST DUP2 SLOAD DUP2 MSTORE SWAP1 PUSH1 0x1 ADD SWAP1 PUSH1 0x20 ADD DUP1 DUP4 GT PUSH2 0x185 JUMPI DUP3 SWAP1 SUB PUSH1 0x1F AND DUP3 ADD SWAP2 JUMPDEST POP POP POP POP POP DUP2 JUMP JUMPDEST PUSH1 0x60 PUSH0 DUP1 DUP4 PUSH20 0xFFFFFFFFFFFFFFFFFFFFFFFFFFFFFFFFFFFFFFFF AND PUSH20 0xFFFFFFFFFFFFFFFFFFFFFFFFFFFFFFFFFFFFFFFF AND DUP2 MSTORE PUSH1 0x20 ADD SWAP1 DUP2 MSTORE PUSH1 0x20 ADD PUSH0 KECCAK256 DUP1 SLOAD DUP1 PUSH1 0x20 MUL PUSH1 0x20 ADD PUSH1 0x40 MLOAD SWAP1 DUP2 ADD PUSH1 0x40 MSTORE DUP1 SWAP3 SWAP2 SWAP1 DUP2 DUP2 MSTORE PUSH1 0x20 ADD PUSH0 SWAP1 JUMPDEST DUP3 DUP3 LT ISZERO PUSH2 0x2AF JUMPI DUP4 DUP3 SWAP1 PUSH0 MSTORE PUSH1 0x20 PUSH0 KECCAK256 ADD DUP1 SLOAD PUSH2 0x224 SWAP1 PUSH2 0x86A JUMP JUMPDEST DUP1 PUSH1 0x1F ADD PUSH1 0x20 DUP1 SWAP2 DIV MUL PUSH1 0x20 ADD PUSH1 0x40 MLOAD SWAP1 DUP2 ADD PUSH1 0x40 MSTORE DUP1 SWAP3 SWAP2 SWAP1 DUP2 DUP2 MSTORE PUSH1 0x20 ADD DUP3 DUP1 SLOAD PUSH2 0x250 SWAP1 PUSH2 0x86A JUMP JUMPDEST DUP1 ISZERO PUSH2 0x29B JUMPI DUP1 PUSH1 0x1F LT PUSH2 0x272 JUMPI PUSH2 0x100 DUP1 DUP4 SLOAD DIV MUL DUP4 MSTORE SWAP2 PUSH1 0x20 ADD SWAP2 PUSH2 0x29B JUMP JUMPDEST DUP3 ADD SWAP2 SWAP1 PUSH0 MSTORE PUSH1 0x20 PUSH0 KECCAK256 SWAP1 JUMPDEST DUP2 SLOAD DUP2 MSTORE SWAP1 PUSH1 0x1 ADD SWAP1 PUSH1 0x20 ADD DUP1 DUP4 GT PUSH2 0x27E JUMPI DUP3 SWAP1 SUB PUSH1 0x1F AND DUP3 ADD SWAP2 JUMPDEST POP POP POP POP POP DUP2 MSTORE PUSH1 0x20 ADD SWAP1 PUSH1 0x1 ADD SWAP1 PUSH2 0x207 JUMP JUMPDEST POP POP POP POP SWAP1 POP SWAP2 SWAP1 POP JUMP JUMPDEST PUSH0 DUP1 CALLER PUSH20 0xFFFFFFFFFFFFFFFFFFFFFFFFFFFFFFFFFFFFFFFF AND PUSH20 0xFFFFFFFFFFFFFFFFFFFFFFFFFFFFFFFFFFFFFFFF AND DUP2 MSTORE PUSH1 0x20 ADD SWAP1 DUP2 MSTORE PUSH1 0x20 ADD PUSH0 KECCAK256 DUP2 SWAP1 DUP1 PUSH1 0x1 DUP2 SLOAD ADD DUP1 DUP3 SSTORE DUP1 SWAP2 POP POP PUSH1 0x1 SWAP1 SUB SWAP1 PUSH0 MSTORE PUSH1 0x20 PUSH0 KECCAK256 ADD PUSH0 SWAP1 SWAP2 SWAP1 SWAP2 SWAP1 SWAP2 POP SWAP1 DUP2 PUSH2 0x325 SWAP2 SWAP1 PUSH2 0xA37 JUMP JUMPDEST POP POP JUMP JUMPDEST PUSH1 0x60 PUSH0 DUP1 DUP5 PUSH20 0xFFFFFFFFFFFFFFFFFFFFFFFFFFFFFFFFFFFFFFFF AND PUSH20 0xFFFFFFFFFFFFFFFFFFFFFFFFFFFFFFFFFFFFFFFF AND DUP2 MSTORE PUSH1 0x20 ADD SWAP1 DUP2 MSTORE PUSH1 0x20 ADD PUSH0 KECCAK256 DUP3 DUP2 SLOAD DUP2 LT PUSH2 0x379 JUMPI PUSH2 0x378 PUSH2 0xB06 JUMP JUMPDEST JUMPDEST SWAP1 PUSH0 MSTORE PUSH1 0x20 PUSH0 KECCAK256 ADD DUP1 SLOAD PUSH2 0x38C SWAP1 PUSH2 0x86A JUMP JUMPDEST DUP1 PUSH1 0x1F ADD PUSH1 0x20 DUP1 SWAP2 DIV MUL PUSH1 0x20 ADD PUSH1 0x40 MLOAD SWAP1 DUP2 ADD PUSH1 0x40 MSTORE DUP1 SWAP3 SWAP2 SWAP1 DUP2 DUP2 MSTORE PUSH1 0x20 ADD DUP3 DUP1 SLOAD PUSH2 0x3B8 SWAP1 PUSH2 0x86A JUMP JUMPDEST DUP1 ISZERO PUSH2 0x403 JUMPI DUP1 PUSH1 0x1F LT PUSH2 0x3DA JUMPI PUSH2 0x100 DUP1 DUP4 SLOAD DIV MUL DUP4 MSTORE SWAP2 PUSH1 0x20 ADD SWAP2 PUSH2 0x403 JUMP JUMPDEST DUP3 ADD SWAP2 SWAP1 PUSH0 MSTORE PUSH1 0x20 PUSH0 KECCAK256 SWAP1 JUMPDEST DUP2 SLOAD DUP2 MSTORE SWAP1 PUSH1 0x1 ADD SWAP1 PUSH1 0x20 ADD DUP1 DUP4 GT PUSH2 0x3E6 JUMPI DUP3 SWAP1 SUB PUSH1 0x1F AND DUP3 ADD SWAP2 JUMPDEST POP POP POP POP POP SWAP1 POP SWAP3 SWAP2 POP POP JUMP JUMPDEST PUSH0 PUSH1 0x40 MLOAD SWAP1 POP SWAP1 JUMP JUMPDEST PUSH0 DUP1 REVERT JUMPDEST PUSH0 DUP1 REVERT JUMPDEST PUSH0 PUSH20 0xFFFFFFFFFFFFFFFFFFFFFFFFFFFFFFFFFFFFFFFF DUP3 AND SWAP1 POP SWAP2 SWAP1 POP JUMP JUMPDEST PUSH0 PUSH2 0x44A DUP3 PUSH2 0x421 JUMP JUMPDEST SWAP1 POP SWAP2 SWAP1 POP JUMP JUMPDEST PUSH2 0x45A DUP2 PUSH2 0x440 JUMP JUMPDEST DUP2 EQ PUSH2 0x464 JUMPI PUSH0 DUP1 REVERT JUMPDEST POP JUMP JUMPDEST PUSH0 DUP2 CALLDATALOAD SWAP1 POP PUSH2 0x475 DUP2 PUSH2 0x451 JUMP JUMPDEST SWAP3 SWAP2 POP POP JUMP JUMPDEST PUSH0 DUP2 SWAP1 POP SWAP2 SWAP1 POP JUMP JUMPDEST PUSH2 0x48D DUP2 PUSH2 0x47B JUMP JUMPDEST DUP2 EQ PUSH2 0x497 JUMPI PUSH0 DUP1 REVERT JUMPDEST POP JUMP JUMPDEST PUSH0 DUP2 CALLDATALOAD SWAP1 POP PUSH2 0x4A8 DUP2 PUSH2 0x484 JUMP JUMPDEST SWAP3 SWAP2 POP POP JUMP JUMPDEST PUSH0 DUP1 PUSH1 0x40 DUP4 DUP6 SUB SLT ISZERO PUSH2 0x4C4 JUMPI PUSH2 0x4C3 PUSH2 0x419 JUMP JUMPDEST JUMPDEST PUSH0 PUSH2 0x4D1 DUP6 DUP3 DUP7 ADD PUSH2 0x467 JUMP JUMPDEST SWAP3 POP POP PUSH1 0x20 PUSH2 0x4E2 DUP6 DUP3 DUP7 ADD PUSH2 0x49A JUMP JUMPDEST SWAP2 POP POP SWAP3 POP SWAP3 SWAP1 POP JUMP JUMPDEST PUSH0 DUP2 MLOAD SWAP1 POP SWAP2 SWAP1 POP JUMP JUMPDEST PUSH0 DUP3 DUP3 MSTORE PUSH1 0x20 DUP3 ADD SWAP1 POP SWAP3 SWAP2 POP POP JUMP JUMPDEST DUP3 DUP2 DUP4 MCOPY PUSH0 DUP4 DUP4 ADD MSTORE POP POP POP JUMP JUMPDEST PUSH0 PUSH1 0x1F NOT PUSH1 0x1F DUP4 ADD AND SWAP1 POP SWAP2 SWAP1 POP JUMP JUMPDEST PUSH0 PUSH2 0x52E DUP3 PUSH2 0x4EC JUMP JUMPDEST PUSH2 0x538 DUP2 DUP6 PUSH2 0x4F6 JUMP JUMPDEST SWAP4 POP PUSH2 0x548 DUP2 DUP6 PUSH1 0x20 DUP7 ADD PUSH2 0x506 JUMP JUMPDEST PUSH2 0x551 DUP2 PUSH2 0x514 JUMP JUMPDEST DUP5 ADD SWAP2 POP POP SWAP3 SWAP2 POP POP JUMP JUMPDEST PUSH0 PUSH1 0x20 DUP3 ADD SWAP1 POP DUP2 DUP2 SUB PUSH0 DUP4 ADD MSTORE PUSH2 0x574 DUP2 DUP5 PUSH2 0x524 JUMP JUMPDEST SWAP1 POP SWAP3 SWAP2 POP POP JUMP JUMPDEST PUSH0 PUSH1 0x20 DUP3 DUP5 SUB SLT ISZERO PUSH2 0x591 JUMPI PUSH2 0x590 PUSH2 0x419 JUMP JUMPDEST JUMPDEST PUSH0 PUSH2 0x59E DUP5 DUP3 DUP6 ADD PUSH2 0x467 JUMP JUMPDEST SWAP2 POP POP SWAP3 SWAP2 POP POP JUMP JUMPDEST PUSH0 DUP2 MLOAD SWAP1 POP SWAP2 SWAP1 POP JUMP JUMPDEST PUSH0 DUP3 DUP3 MSTORE PUSH1 0x20 DUP3 ADD SWAP1 POP SWAP3 SWAP2 POP POP JUMP JUMPDEST PUSH0 DUP2 SWAP1 POP PUSH1 0x20 DUP3 ADD SWAP1 POP SWAP2 SWAP1 POP JUMP JUMPDEST PUSH0 DUP3 DUP3 MSTORE PUSH1 0x20 DUP3 ADD SWAP1 POP SWAP3 SWAP2 POP POP JUMP JUMPDEST PUSH0 PUSH2 0x5EA DUP3 PUSH2 0x4EC JUMP JUMPDEST PUSH2 0x5F4 DUP2 DUP6 PUSH2 0x5D0 JUMP JUMPDEST SWAP4 POP PUSH2 0x604 DUP2 DUP6 PUSH1 0x20 DUP7 ADD PUSH2 0x506 JUMP JUMPDEST PUSH2 0x60D DUP2 PUSH2 0x514 JUMP JUMPDEST DUP5 ADD SWAP2 POP POP SWAP3 SWAP2 POP POP JUMP JUMPDEST PUSH0 PUSH2 0x623 DUP4 DUP4 PUSH2 0x5E0 JUMP JUMPDEST SWAP1 POP SWAP3 SWAP2 POP POP JUMP JUMPDEST PUSH0 PUSH1 0x20 DUP3 ADD SWAP1 POP SWAP2 SWAP1 POP JUMP JUMPDEST PUSH0 PUSH2 0x641 DUP3 PUSH2 0x5A7 JUMP JUMPDEST PUSH2 0x64B DUP2 DUP6 PUSH2 0x5B1 JUMP JUMPDEST SWAP4 POP DUP4 PUSH1 0x20 DUP3 MUL DUP6 ADD PUSH2 0x65D DUP6 PUSH2 0x5C1 JUMP JUMPDEST DUP1 PUSH0 JUMPDEST DUP6 DUP2 LT ISZERO PUSH2 0x698 JUMPI DUP5 DUP5 SUB DUP10 MSTORE DUP2 MLOAD PUSH2 0x679 DUP6 DUP3 PUSH2 0x618 JUMP JUMPDEST SWAP5 POP PUSH2 0x684 DUP4 PUSH2 0x62B JUMP JUMPDEST SWAP3 POP PUSH1 0x20 DUP11 ADD SWAP10 POP POP PUSH1 0x1 DUP2 ADD SWAP1 POP PUSH2 0x660 JUMP JUMPDEST POP DUP3 SWAP8 POP DUP8 SWAP6 POP POP POP POP POP POP SWAP3 SWAP2 POP POP JUMP JUMPDEST PUSH0 PUSH1 0x20 DUP3 ADD SWAP1 POP DUP2 DUP2 SUB PUSH0 DUP4 ADD MSTORE PUSH2 0x6C2 DUP2 DUP5 PUSH2 0x637 JUMP JUMPDEST SWAP1 POP SWAP3 SWAP2 POP POP JUMP JUMPDEST PUSH0 DUP1 REVERT JUMPDEST PUSH0 DUP1 REVERT JUMPDEST PUSH32 0x4E487B7100000000000000000000000000000000000000000000000000000000 PUSH0 MSTORE PUSH1 0x41 PUSH1 0x4 MSTORE PUSH1 0x24 PUSH0 REVERT JUMPDEST PUSH2 0x708 DUP3 PUSH2 0x514 JUMP JUMPDEST DUP2 ADD DUP2 DUP2 LT PUSH8 0xFFFFFFFFFFFFFFFF DUP3 GT OR ISZERO PUSH2 0x727 JUMPI PUSH2 0x726 PUSH2 0x6D2 JUMP JUMPDEST JUMPDEST DUP1 PUSH1 0x40 MSTORE POP POP POP JUMP JUMPDEST PUSH0 PUSH2 0x739 PUSH2 0x410 JUMP JUMPDEST SWAP1 POP PUSH2 0x745 DUP3 DUP3 PUSH2 0x6FF JUMP JUMPDEST SWAP2 SWAP1 POP JUMP JUMPDEST PUSH0 PUSH8 0xFFFFFFFFFFFFFFFF DUP3 GT ISZERO PUSH2 0x764 JUMPI PUSH2 0x763 PUSH2 0x6D2 JUMP JUMPDEST JUMPDEST PUSH2 0x76D DUP3 PUSH2 0x514 JUMP JUMPDEST SWAP1 POP PUSH1 0x20 DUP2 ADD SWAP1 POP SWAP2 SWAP1 POP JUMP JUMPDEST DUP3 DUP2 DUP4 CALLDATACOPY PUSH0 DUP4 DUP4 ADD MSTORE POP POP POP JUMP JUMPDEST PUSH0 PUSH2 0x79A PUSH2 0x795 DUP5 PUSH2 0x74A JUMP JUMPDEST PUSH2 0x730 JUMP JUMPDEST SWAP1 POP DUP3 DUP2 MSTORE PUSH1 0x20 DUP2 ADD DUP5 DUP5 DUP5 ADD GT ISZERO PUSH2 0x7B6 JUMPI PUSH2 0x7B5 PUSH2 0x6CE JUMP JUMPDEST JUMPDEST PUSH2 0x7C1 DUP5 DUP3 DUP6 PUSH2 0x77A JUMP JUMPDEST POP SWAP4 SWAP3 POP POP POP JUMP JUMPDEST PUSH0 DUP3 PUSH1 0x1F DUP4 ADD SLT PUSH2 0x7DD JUMPI PUSH2 0x7DC PUSH2 0x6CA JUMP JUMPDEST JUMPDEST DUP2 CALLDATALOAD PUSH2 0x7ED DUP5 DUP3 PUSH1 0x20 DUP7 ADD PUSH2 0x788 JUMP JUMPDEST SWAP2 POP POP SWAP3 SWAP2 POP POP JUMP JUMPDEST PUSH0 PUSH1 0x20 DUP3 DUP5 SUB SLT ISZERO PUSH2 0x80B JUMPI PUSH2 0x80A PUSH2 0x419 JUMP JUMPDEST JUMPDEST PUSH0 DUP3 ADD CALLDATALOAD PUSH8 0xFFFFFFFFFFFFFFFF DUP2 GT ISZERO PUSH2 0x828 JUMPI PUSH2 0x827 PUSH2 0x41D JUMP JUMPDEST JUMPDEST PUSH2 0x834 DUP5 DUP3 DUP6 ADD PUSH2 0x7C9 JUMP JUMPDEST SWAP2 POP POP SWAP3 SWAP2 POP POP JUMP JUMPDEST PUSH32 0x4E487B7100000000000000000000000000000000000000000000000000000000 PUSH0 MSTORE PUSH1 0x22 PUSH1 0x4 MSTORE PUSH1 0x24 PUSH0 REVERT JUMPDEST PUSH0 PUSH1 0x2 DUP3 DIV SWAP1 POP PUSH1 0x1 DUP3 AND DUP1 PUSH2 0x881 JUMPI PUSH1 0x7F DUP3 AND SWAP2 POP JUMPDEST PUSH1 0x20 DUP3 LT DUP2 SUB PUSH2 0x894 JUMPI PUSH2 0x893 PUSH2 0x83D JUMP JUMPDEST JUMPDEST POP SWAP2 SWAP1 POP JUMP JUMPDEST PUSH0 DUP2 SWAP1 POP DUP2 PUSH0 MSTORE PUSH1 0x20 PUSH0 KECCAK256 SWAP1 POP SWAP2 SWAP1 POP JUMP JUMPDEST PUSH0 PUSH1 0x20 PUSH1 0x1F DUP4 ADD DIV SWAP1 POP SWAP2 SWAP1 POP JUMP JUMPDEST PUSH0 DUP3 DUP3 SHL SWAP1 POP SWAP3 SWAP2 POP POP JUMP JUMPDEST PUSH0 PUSH1 0x8 DUP4 MUL PUSH2 0x8F6 PUSH32 0xFFFFFFFFFFFFFFFFFFFFFFFFFFFFFFFFFFFFFFFFFFFFFFFFFFFFFFFFFFFFFFFF DUP3 PUSH2 0x8BB JUMP JUMPDEST PUSH2 0x900 DUP7 DUP4 PUSH2 0x8BB JUMP JUMPDEST SWAP6 POP DUP1 NOT DUP5 AND SWAP4 POP DUP1 DUP7 AND DUP5 OR SWAP3 POP POP POP SWAP4 SWAP3 POP POP POP JUMP JUMPDEST PUSH0 DUP2 SWAP1 POP SWAP2 SWAP1 POP JUMP JUMPDEST PUSH0 PUSH2 0x93B PUSH2 0x936 PUSH2 0x931 DUP5 PUSH2 0x47B JUMP JUMPDEST PUSH2 0x918 JUMP JUMPDEST PUSH2 0x47B JUMP JUMPDEST SWAP1 POP SWAP2 SWAP1 POP JUMP JUMPDEST PUSH0 DUP2 SWAP1 POP SWAP2 SWAP1 POP JUMP JUMPDEST PUSH2 0x954 DUP4 PUSH2 0x921 JUMP JUMPDEST PUSH2 0x968 PUSH2 0x960 DUP3 PUSH2 0x942 JUMP JUMPDEST DUP5 DUP5 SLOAD PUSH2 0x8C7 JUMP JUMPDEST DUP3 SSTORE POP POP POP POP JUMP JUMPDEST PUSH0 SWAP1 JUMP JUMPDEST PUSH2 0x97C PUSH2 0x970 JUMP JUMPDEST PUSH2 0x987 DUP2 DUP5 DUP5 PUSH2 0x94B JUMP JUMPDEST POP POP POP JUMP JUMPDEST JUMPDEST DUP2 DUP2 LT ISZERO PUSH2 0x9AA JUMPI PUSH2 0x99F PUSH0 DUP3 PUSH2 0x974 JUMP JUMPDEST PUSH1 0x1 DUP2 ADD SWAP1 POP PUSH2 0x98D JUMP JUMPDEST POP POP JUMP JUMPDEST PUSH1 0x1F DUP3 GT ISZERO PUSH2 0x9EF JUMPI PUSH2 0x9C0 DUP2 PUSH2 0x89A JUMP JUMPDEST PUSH2 0x9C9 DUP5 PUSH2 0x8AC JUMP JUMPDEST DUP2 ADD PUSH1 0x20 DUP6 LT ISZERO PUSH2 0x9D8 JUMPI DUP2 SWAP1 POP JUMPDEST PUSH2 0x9EC PUSH2 0x9E4 DUP6 PUSH2 0x8AC JUMP JUMPDEST DUP4 ADD DUP3 PUSH2 0x98C JUMP JUMPDEST POP POP JUMPDEST POP POP POP JUMP JUMPDEST PUSH0 DUP3 DUP3 SHR SWAP1 POP SWAP3 SWAP2 POP POP JUMP JUMPDEST PUSH0 PUSH2 0xA0F PUSH0 NOT DUP5 PUSH1 0x8 MUL PUSH2 0x9F4 JUMP JUMPDEST NOT DUP1 DUP4 AND SWAP2 POP POP SWAP3 SWAP2 POP POP JUMP JUMPDEST PUSH0 PUSH2 0xA27 DUP4 DUP4 PUSH2 0xA00 JUMP JUMPDEST SWAP2 POP DUP3 PUSH1 0x2 MUL DUP3 OR SWAP1 POP SWAP3 SWAP2 POP POP JUMP JUMPDEST PUSH2 0xA40 DUP3 PUSH2 0x4EC JUMP JUMPDEST PUSH8 0xFFFFFFFFFFFFFFFF DUP2 GT ISZERO PUSH2 0xA59 JUMPI PUSH2 0xA58 PUSH2 0x6D2 JUMP JUMPDEST JUMPDEST PUSH2 0xA63 DUP3 SLOAD PUSH2 0x86A JUMP JUMPDEST PUSH2 0xA6E DUP3 DUP3 DUP6 PUSH2 0x9AE JUMP JUMPDEST PUSH0 PUSH1 0x20 SWAP1 POP PUSH1 0x1F DUP4 GT PUSH1 0x1 DUP2 EQ PUSH2 0xA9F JUMPI PUSH0 DUP5 ISZERO PUSH2 0xA8D JUMPI DUP3 DUP8 ADD MLOAD SWAP1 POP JUMPDEST PUSH2 0xA97 DUP6 DUP3 PUSH2 0xA1C JUMP JUMPDEST DUP7 SSTORE POP PUSH2 0xAFE JUMP JUMPDEST PUSH1 0x1F NOT DUP5 AND PUSH2 0xAAD DUP7 PUSH2 0x89A JUMP JUMPDEST PUSH0 JUMPDEST DUP3 DUP2 LT ISZERO PUSH2 0xAD4 JUMPI DUP5 DUP10 ADD MLOAD DUP3 SSTORE PUSH1 0x1 DUP3 ADD SWAP2 POP PUSH1 0x20 DUP6 ADD SWAP5 POP PUSH1 0x20 DUP2 ADD SWAP1 POP PUSH2 0xAAF JUMP JUMPDEST DUP7 DUP4 LT ISZERO PUSH2 0xAF1 JUMPI DUP5 DUP10 ADD MLOAD PUSH2 0xAED PUSH1 0x1F DUP10 AND DUP3 PUSH2 0xA00 JUMP JUMPDEST DUP4 SSTORE POP JUMPDEST PUSH1 0x1 PUSH1 0x2 DUP9 MUL ADD DUP9 SSTORE POP POP POP JUMPDEST POP POP POP POP POP POP JUMP JUMPDEST PUSH32 0x4E487B7100000000000000000000000000000000000000000000000000000000 PUSH0 MSTORE PUSH1 0x32 PUSH1 0x4 MSTORE PUSH1 0x24 PUSH0 REVERT INVALID LOG2 PUSH5 0x6970667358 0x22 SLT KECCAK256 PUSH27 0x7B8F17F15F98A141E44D615BF1578D20C0314D54610874B9539D63 0xDF DUP8 GASLIMIT RETURNDATASIZE PUSH5 0x736F6C6343 STOP ADDMOD BYTE STOP CALLER "
				},
				"gasEstimates": {
					"creation": {
						"codeDepositCost": "584200",
						"executionCost": "617",
						"totalCost": "584817"
					},
					"external": {
						"addTweet(string)": "infinite",
						"getAllTweets(address)": "infinite",
						"getSingleTweetById(address,uint256)": "infinite",
						"tweets(address,uint256)": "infinite"
					}
				},
				"methodIdentifiers": {
					"addTweet(string)": "59ee12bc",
					"getAllTweets(address)": "12e7ee1c",
					"getSingleTweetById(address,uint256)": "bade444a",
					"tweets(address,uint256)": "05a1b4a9"
				}
			},
			"storageLayout": {
				"storage": [
					{
						"astId": 6,
						"contract": "contracts/Twitter.sol:Twitter",
						"label": "tweets",
						"offset": 0,
						"slot": "0",
						"type": "t_mapping(t_address,t_array(t_string_storage)dyn_storage)"
					}
				],
				"types": {
					"t_address": {
						"encoding": "inplace",
						"label": "address",
						"numberOfBytes": "20"
					},
					"t_array(t_string_storage)dyn_storage": {
						"base": "t_string_storage",
						"encoding": "dynamic_array",
						"label": "string[]",
						"numberOfBytes": "32"
					},
					"t_mapping(t_address,t_array(t_string_storage)dyn_storage)": {
						"encoding": "mapping",
						"key": "t_address",
						"label": "mapping(address => string[])",
						"numberOfBytes": "32",
						"value": "t_array(t_string_storage)dyn_storage"
					},
					"t_string_storage": {
						"encoding": "bytes",
						"label": "string",
						"numberOfBytes": "32"
					}
				}
			},
			"userdoc": {
				"kind": "user",
				"methods": {},
				"version": 1
			}
		}
	}
}